:020000040800F2
:1000000000500020154000081D2000081F20000897
:1000100021200008232000082520000800000000FF
:100020000000000000000000000000002720000881
:1000300029200008000000002B2000082D200008C7
:100040005D4000085D4000085D4000085D4000081C
:100050005D4000085D4000085D4000085D4000080C
:100060005D4000085D4000085D4000085D400008FC
:100070005D4000085D4000085D4000085D400008EC
:100080005D4000085D4000085D4000085D400008DC
:100090005D4000085D4000085D4000085D400008CC
:1000A0005D4000085D4000085D4000085D400008BC
:1000B0005D400008352000085D4000085D400008F4
:1000C0005D4000085D4000085D4000085D4000089C
:1000D0005D4000085D400008452000085D400008C4
:1000E0005D4000085D4000085D4000080000000021
:1000F0000000000000000000000000000000000000
:0C01000000000000000000005FF808F1A3
:1001100010B5054C237833B9044B13B10448AFF341
:1001200000800123237010BDBC09002000000000E6
:1001300030C3000808B5034B1BB103490348AFF3B4
:10014000008008BD00000000C009002030C3000886
:1001500081F0004102E000BF83F0004330B54FEA78
:1001600041044FEA430594EA050F08BF90EA020FE5
:100170001FBF54EA000C55EA020C7FEA645C7FEA78
:10018000655C00F0E2804FEA5454D4EB5555B8BF9B
:100190006D420CDD2C4480EA020281EA030382EA0C
:1001A000000083EA010180EA020281EA0303362D9E
:1001B00088BF30BD11F0004F4FEA01314FF4801C71
:1001C0004CEA113102D0404261EB410113F0004F83
:1001D0004FEA03334CEA133302D0524263EB43033A
:1001E00094EA050F00F0A780A4F10104D5F1200ED8
:1001F0000DDB02FA0EFC22FA05F2801841F1000133
:1002000003FA0EF2801843FA05F359410EE0A5F106
:1002100020050EF1200E012A03FA0EFC28BF4CF037
:10022000020C43FA05F3C01851EBE37101F00045ED
:1002300007D54FF0000EDCF1000C7EEB00006EEBFA
:100240000101B1F5801F1BD3B1F5001F0CD3490884
:100250005FEA30004FEA3C0C04F101044FEA4452DB
:1002600012F5800F80F09A80BCF1004F08BF5FEA62
:10027000500C50F1000041EB045141EA050130BD42
:100280005FEA4C0C404141EB0101013C28BFB1F554
:10029000801FE9D291F0000F04BF01460020B1FA9F
:1002A00081F308BF2033A3F10B03B3F120020CDA72
:1002B0000C3208DD02F1140CC2F10C0201FA0CF050
:1002C00021FA02F10CE002F11402D8BFC2F1200CB5
:1002D00001FA02F120FA0CFCDCBF41EA0C0190406B
:1002E000E41AA2BF01EB0451294330BD6FEA0404B4
:1002F0001F3C1CDA0C340EDC04F11404C4F120029F
:1003000020FA04F001FA02F340EA030021FA04F3B0
:1003100045EA030130BDC4F10C04C4F1200220FA07
:1003200002F001FA04F340EA0300294630BD21FA45
:1003300004F0294630BD94F0000F83F4801306BF0B
:1003400081F480110134013D4EE77FEA645C18BFFF
:100350007FEA655C29D094EA050F08BF90EA020F96
:1003600005D054EA000C04BF1946104630BD91EA8E
:10037000030F1EBF0021002030BD5FEA545C05D191
:100380004000494128BF41F0004130BD14F58004D0
:100390003CBF01F5801130BD01F0004545F0FE4144
:1003A00041F470014FF0000030BD7FEA645C1ABF79
:1003B000194610467FEA655C1CBF0B46024650EAB0
:1003C000013406BF52EA033591EA030F41F40021DC
:1003D00030BD00BF90F0000F04BF0021704730B562
:1003E0004FF4806404F132044FF000054FF0000137
:1003F00050E700BF90F0000F04BF0021704730B5F8
:100400004FF4806404F1320410F0004548BF4042CC
:100410004FF000013EE700BF42004FEAE2014FEA21
:1004200031014FEA02701FBF12F07F4393F07F4FFC
:1004300081F06051704732F07F4208BF704793F0FF
:100440007F4F04BF41F40021704730B54FF4607412
:1004500001F0004521F000411CE700BF50EA010215
:1004600008BF704730B54FF000050AE050EA0102BE
:1004700008BF704730B511F0004502D5404261EB2E
:1004800041014FF4806404F132045FEA915C3FF46F
:10049000D8AE4FF003025FEADC0C18BF03325FEA0C
:1004A000DC0C18BF033202EBDC02C2F1200300FABD
:1004B00003FC20FA02F001FA03FE40EA0E0021FAE2
:1004C00002F11444BDE600BF4FEA4102B2F1E0433D
:1004D00024BFB3F5001CDCF1FE5C0DD901F0004C2B
:1004E0004FEAC0024CEA5070B2F1004F40EB83007B
:1004F00008BF20F00100704711F0804F21D113F1A7
:100500003872BCBF01F00040704741F480114FEADF
:100510005252C2F11802C2F1200C10FA0CF320FA68
:1005200002F018BF40F001004FEAC1234FEAD32385
:1005300003FA0CFC40EA0C0023FA02F34FEA4303EF
:10054000CCE77FEA625307D150EA01331EBF4FF078
:10055000FE4040F44000704701F0004040F0FE4093
:1005600040F40000704700BF80F0004002E000BF90
:1005700081F0004142001FBF5FEA410392EA030F8E
:100580007FEA226C7FEA236C6AD04FEA1262D2EBD8
:100590001363C1BFD218414048404140B8BF5B42DD
:1005A000192B88BF704710F0004F40F4000020F076
:1005B0007F4018BF404211F0004F41F4000121F08C
:1005C0007F4118BF494292EA030F3FD0A2F10102D6
:1005D00041FA03FC10EB0C00C3F1200301FA03F114
:1005E00000F0004302D5494260EB4000B0F5000F37
:1005F00013D3B0F1807F06D340084FEA310102F1F6
:100600000102FE2A51D2B1F1004F40EBC25008BFA7
:1006100020F0010040EA03007047490040EB000071
:10062000013A28BFB0F5000FEDD2B0FA80FCACF172
:10063000080CB2EB0C0200FA0CF0AABF00EBC2509F
:1006400052421843BCBFD0401843704792F0000F8D
:1006500081F4000106BF80F400000132013BB5E7E0
:100660004FEA41037FEA226C18BF7FEA236C21D056
:1006700092EA030F04D092F0000F08BF08467047BB
:1006800090EA010F1CBF0020704712F07F4F04D189
:10069000400028BF40F00040704712F100723CBF9C
:1006A00000F50000704700F0004343F0FE4040F4C6
:1006B000000070477FEA226216BF08467FEA236384
:1006C0000146420206BF5FEA412390EA010F40F46F
:1006D000800070474FF0000304E000BF10F00043BB
:1006E00048BF40425FEA000C08BF704743F09643A2
:1006F00001464FF000001CE050EA010208BF7047BD
:100700004FF000030AE000BF50EA010208BF704743
:1007100011F0004302D5404261EB41015FEA010C58
:1007200002BF84460146002043F0B64308BFA3F150
:100730008053A3F50003BCFA8CF2083AA3EBC25332
:1007400010DB01FA02FC634400FA02FCC2F1200251
:10075000BCF1004F20FA02F243EB020008BF20F088
:100760000100704702F1200201FA02FCC2F12002EE
:1007700050EA4C0021FA02F243EB020008BF20EAE3
:10078000DC7070474FF0FF0C1CEAD0521EBF1CEA11
:10079000D15392EA0C0F93EA0C0F6FD01A4480EAFF
:1007A000010C400218BF5FEA41211ED04FF00063E8
:1007B00043EA501043EA5111A0FB01310CF0004014
:1007C000B1F5000F3EBF490041EAD3715B0040EA3A
:1007D000010062F17F02FD2A1DD8B3F1004F40EB0A
:1007E000C25008BF20F00100704790F0000F0CF0DD
:1007F000004C08BF49024CEA502040EA51207F3AA1
:10080000C2BFD2F1FF0340EAC250704740F400007B
:100810004FF00003013A5DDC12F1190FDCBF00F06C
:1008200000407047C2F10002410021FA02F1C2F11A
:10083000200200FA02FC5FEA310040F1000053EAB6
:100840004C0308BF20EADC70704792F0000F00F004
:10085000004C02BF400010F4000F013AF9D040EA0A
:100860000C0093F0000F01F0004C02BF490011F49E
:10087000000F013BF9D041EA0C018FE70CEAD1539C
:1008800092EA0C0F18BF93EA0C0F0AD030F0004C1C
:1008900018BF31F0004CD8D180EA010000F00040D0
:1008A000704790F0000F17BF90F0004F084691F08E
:1008B000000F91F0004F14D092EA0C0F01D14202C8
:1008C0000FD193EA0C0F03D14B0218BF084608D191
:1008D00080EA010000F0004040F0FE4040F40000DB
:1008E000704740F0FE4040F4400070474FF0FF0C6E
:1008F0001CEAD0521EBF1CEAD15392EA0C0F93EAB5
:100900000C0F69D0A2EB030280EA010C49024FEA06
:10091000402037D04FF0805343EA111143EA1013BF
:100920000CF000408B4238BF5B0042F17D024FF477
:10093000000C8B4224BF5B1A40EA0C00B3EB510F52
:1009400024BFA3EB510340EA5C00B3EB910F24BF3B
:10095000A3EB910340EA9C00B3EBD10F24BFA3EBC0
:10096000D10340EADC001B0118BF5FEA1C1CE0D188
:10097000FD2A3FF650AF8B4240EBC25008BF20F03B
:10098000010070470CF0004C4CEA50207F32C2BF8F
:10099000D2F1FF0340EAC250704740F400004FF02C
:1009A0000003013A37E792F0000F00F0004C02BF5D
:1009B000400010F4000F013AF9D040EA0C0093F027
:1009C000000F01F0004C02BF490011F4000F013B81
:1009D000F9D041EA0C0195E70CEAD15392EA0C0FE9
:1009E00008D142027FF47DAF93EA0C0F7FF470AF21
:1009F000084676E793EA0C0F04D14B023FF44CAF64
:100A000008466EE730F0004C18BF31F0004CCAD1F8
:100A100030F000427FF45CAF31F000437FF43CAF34
:100A20005FE700BF4FF0FF3C06E000BF4FF0010C56
:100A300002E000BF4FF0010C4DF804CD4FEA400238
:100A40004FEA41037FEA226C18BF7FEA236C11D082
:100A500001B052EA530C18BF90EA010F58BFB2EB35
:100A6000030088BFC81738BF6FEAE17018BF40F0B5
:100A7000010070477FEA226C02D15FEA402C05D169
:100A80007FEA236CE4D15FEA412CE1D05DF8040BEE
:100A9000704700BF844608466146FFE70FB5FFF781
:100AA000C9FF002848BF10F1000F0FBD4DF808ED39
:100AB000FFF7F4FF0CBF012000205DF808FB00BF2A
:100AC0004DF808EDFFF7EAFF34BF012000205DF884
:100AD00008FB00BF4DF808EDFFF7E0FF94BF0120D1
:100AE00000205DF808FB00BF4DF808EDFFF7D2FFCE
:100AF00094BF012000205DF808FB00BF4DF808ED11
:100B0000FFF7C8FF34BF012000205DF808FB00BFDD
:100B100042000ED2B2F1FE4F0BD34FF09E03B3EB67
:100B2000126209D44FEA002343F0004323FA02F093
:100B300070474FF00000704712F1610F01D142027F
:100B400002D14FF0FF3070474FF00000704700BFF8
:100B5000844641EA000313F0030349D1403A23D30A
:100B60000B6803604B6843608B688360CB68C3602D
:100B70000B6903614B6943618B698361CB69C36115
:100B80000B6A03624B6A43628B6A8362CB6AC362FD
:100B90000B6B03634B6B43638B6B8363CB6BC363E5
:100BA00040304031403ADBD230320BD30B68036027
:100BB0004B6843608B688360CB68C3601030103132
:100BC000103AF3D20C3205D351F8043B40F8043B01
:100BD000043AF9D2043208D0D2071CBF11F8013B05
:100BE00000F8013B01D30B8803806046704700BFCB
:100BF000082A13D38B07B1D010F00303AED0C3F192
:100C00000403D21ADB071CBF11F8013B00F8013BBB
:100C1000A4D331F8023B20F8023B9FE7043AD9D332
:100C2000013A11F8013B00F8013BF9D20B7803704F
:100C30004B7843708B7883706046704770B54FF087
:100C4000FF0C4CF4E06C1CEA11541DBF1CEA135558
:100C500094EA0C0F95EA0C0F00F0DEF82C4481EAC0
:100C6000030621EA4C5123EA4C5350EA013518BFE0
:100C700052EA033541F4801143F4801338D0A0FBCD
:100C800002CE4FF00005E1FB02E506F00042E0FB7A
:100C900003E54FF00006E1FB03569CF0000F18BF80
:100CA0004EF0010EA4F1FF04B6F5007F64F5407428
:100CB00004D25FEA4E0E6D4146EB060642EAC621BB
:100CC00041EA55514FEAC52040EA5E504FEACE2E28
:100CD000B4F1FD0C88BFBCF5E06F1ED8BEF1004F2B
:100CE00008BF5FEA500E50F1000041EB045170BDA7
:100CF00006F0004646EA010140EA020081EA0301EB
:100D0000B4EB5C04C2BFD4EB0C0541EA045170BDE6
:100D100041F480114FF0000E013C00F3AB8014F160
:100D2000360FDEBF002001F0004170BDC4F10004A9
:100D3000203C35DA0C341BDC04F11404C4F120052A
:100D400000FA05F320FA04F001FA05F240EA020085
:100D500001F0004221F0004110EBD37021FA04F6BB
:100D600042EB06015EEA430E08BF20EAD37070BD75
:100D7000C4F10C04C4F1200500FA04F320FA05F0D4
:100D800001FA04F240EA020001F0004110EBD370D6
:100D900041F100015EEA430E08BF20EAD37070BD46
:100DA000C4F1200500FA05F24EEA020E20FA04F31F
:100DB00001FA05F243EA020321FA04F001F00041CE
:100DC00021FA04F220EA020000EBD3705EEA430E3F
:100DD00008BF20EAD37070BD94F0000F0FD101F06E
:100DE0000046400041EB010111F4801F08BF013CA7
:100DF000F7D041EA060195F0000F18BF704703F0E5
:100E00000046520043EB030313F4801F08BF013D6B
:100E1000F7D043EA0603704794EA0C0F0CEA135527
:100E200018BF95EA0C0F0CD050EA410618BF52EAE1
:100E30004306D1D181EA030101F000414FF00000E7
:100E400070BD50EA410606BF1046194652EA4306F5
:100E500019D094EA0C0F02D150EA013613D195EA69
:100E60000C0F05D152EA03361CBF104619460AD1B1
:100E700081EA030101F0004141F0FE4141F47001BB
:100E80004FF0000070BD41F0FE4141F4780170BDAB
:100E900070B54FF0FF0C4CF4E06C1CEA11541DBF10
:100EA0001CEA135594EA0C0F95EA0C0F00F0A7F812
:100EB000A4EB050481EA030E52EA03354FEA01313F
:100EC00000F088804FEA03334FF0805545EA131352
:100ED00043EA12634FEA022245EA111545EA10651A
:100EE0004FEA00260EF000419D4208BF964244F1B1
:100EF000FD0404F5407402D25B084FEA3202B61AD0
:100F000065EB03055B084FEA32024FF480104FF4A3
:100F1000002CB6EB020E75EB030E22BFB61A754617
:100F200040EA0C005B084FEA3202B6EB020E75EBAA
:100F3000030E22BFB61A754640EA5C005B084FEA12
:100F40003202B6EB020E75EB030E22BFB61A7546DF
:100F500040EA9C005B084FEA3202B6EB020E75EBEA
:100F6000030E22BFB61A754640EADC0055EA060EAB
:100F700018D04FEA051545EA16754FEA06164FEAEE
:100F8000C30343EA52734FEAC2025FEA1C1CC0D19A
:100F900011F4801F0BD141EA00014FF000004FF027
:100FA000004CB6E711F4801F04BF01430020B4F1E8
:100FB000FD0C88BFBCF5E06F3FF6AFAEB5EB030CA0
:100FC00004BFB6EB020C5FEA500C50F1000041EB9D
:100FD000045170BD0EF0004E4EEA113114EB5C046A
:100FE000C2BFD4EB0C0541EA045170BD41F480113D
:100FF0004FF0000E013C90E645EA060E8DE60CEA45
:10100000135594EA0C0F08BF95EA0C0F3FF43BAF61
:1010100094EA0C0F0AD150EA01347FF434AF95EA18
:101020000C0F7FF425AF104619462CE795EA0C0FFC
:1010300006D152EA03353FF4FDAE1046194622E7C9
:1010400050EA410618BF52EA43067FF4C5AE50EAA3
:1010500041047FF40DAF52EA43057FF4EBAE12E793
:101060004FF0FF3C06E000BF4FF0010C02E000BF74
:101070004FF0010C4DF804CD4FEA410C7FEA6C5C57
:101080004FEA430C18BF7FEA6C5C1BD001B050EAFA
:10109000410C0CBF52EA430C91EA030F02BF90EAE5
:1010A000020F0020704710F1000F91EA030F58BFA4
:1010B000994208BF90422CBFD8176FEAE37040F006
:1010C000010070474FEA410C7FEA6C5C02D150EAA4
:1010D000013C07D14FEA430C7FEA6C5CD6D152EA5F
:1010E000033CD3D05DF8040B704700BF8446104624
:1010F00062468C461946634600E000BF01B5FFF723
:10110000B7FF002848BF10F1000F01BD4DF808EDF2
:10111000FFF7F4FF0CBF012000205DF808FB00BFC3
:101120004DF808EDFFF7EAFF34BF012000205DF81D
:1011300008FB00BF4DF808EDFFF7E0FF94BF01206A
:1011400000205DF808FB00BF4DF808EDFFF7CEFF6B
:1011500094BF012000205DF808FB00BF4DF808EDAA
:10116000FFF7C4FF34BF012000205DF808FB00BF7B
:101170004FEA410C7FEA6C5C02D150EA013C0AD193
:101180004FEA430C7FEA6C5C02D152EA033C02D185
:101190004FF0000070474FF0010070474FEA4102E6
:1011A00012F5001215D211D56FF47873B3EB6252B9
:1011B00012D94FEAC12343F0004343EA505311F0E0
:1011C000004F23FA02F018BF404270474FF0000072
:1011D000704750EA013005D111F0004008BF6FF0B0
:1011E000004070474FF00000704700BF4A0011D226
:1011F00012F5001211D20DD56FF47873B3EB625271
:101200000ED44FEAC12343F0004343EA505323FA7C
:1012100002F070474FF00000704750EA013002D1F1
:101220004FF0FF3070474FF00000704753B94AB994
:10123000002908BF00281CBF4FF0FF314FF0FF30DE
:1012400000F0AEB9ADF1080C6DE904CE00F03EF847
:10125000DDF804E0DDE9022304B0704738B5054647
:101260000C460022002328462146FFF759FF28B9E3
:1012700028462146BDE8384000F00AB8284604F167
:10128000004100F005F8404261EB410138BD00BF6C
:10129000D0B500220B4B06460F46FFF7CFFCFFF7F9
:1012A000A5FF0446FFF796F80022074BFFF7C6FCA0
:1012B00002460B4630463946FEF74EFFFFF796FFD3
:1012C0002146D0BD0000F03D0000F0412DE9F0477F
:1012D000089E0D4604468846002B4DD18A4294460E
:1012E00068D9B2FA82F252B101FA02F3C2F12001D6
:1012F00020FA01F10CFA02FC41EA030894404FEA9B
:101300001C41B8FBF1F71FFA8CFE01FB178807FBA5
:101310000EF0230C43EA084398420AD91CEB03035E
:1013200007F1FF3580F01E81984240F21B81023F99
:1013300063441B1AB3FBF1F001FB103300FB0EFEFC
:10134000A4B244EA0344A6450AD91CEB040400F104
:10135000FF3380F00981A64540F2068164440238DB
:101360000021A4EB0E0440EA07401EB10023D44044
:10137000C6E90043BDE8F0878B4208D9002E00F093
:10138000EE800021C6E900050846BDE8F087B3FA03
:1013900083F100294AD1AB4202D3824200F2FC80A1
:1013A000841A65EB030301209846002EE2D0C6E9BB
:1013B0000048DFE702B9FFDEB2FA82F2002A40F00D
:1013C0009180A1EB0C0001214FEA1C471FFA8CFE13
:1013D000B0FBF7F307FB1300250C45EA00450EFBB5
:1013E00003F0A84208D91CEB050503F1FF3802D22F
:1013F000A84200F2CE8043462D1AB5FBF7F007FB5A
:1014000010550EFB00FEA4B244EA0544A64508D9D7
:101410001CEB040400F1FF3502D2A64500F2B680B1
:101420002846A4EB0E0440EA03409EE7C1F12007E2
:101430008B4022FA07FC4CEA030C25FA07FA4FEA24
:101440001C49BAFBF9F820FA07F309FB18AA8D40EA
:101450001FFA8CFE1D4300FA01F308FB0EF02C0C62
:1014600044EA0A44A04202FA01F20BD91CEB04043C
:1014700008F1FF3A80F08880A04240F28580A8F110
:1014800002086444241AB4FBF9F009FB104400FB81
:101490000EFEADB245EA0444A64508D91CEB04048F
:1014A00000F1FF356CD2A6456AD90238644440EA9F
:1014B0000840A0FB0295A4EB0E04AC42C846AE4621
:1014C00056D353D0002E69D0B3EB080264EB0E0460
:1014D00022FA01F304FA07F71F43CC40C6E900746F
:1014E000002147E70CFA02FCC2F1200125FA01F3C2
:1014F0004FEA1C4720FA01F195400D43B3FBF7F189
:1015000007FB11331FFA8CFE280C40EA034001FB55
:101510000EF3834204FA02F408D91CEB000001F137
:10152000FF382FD283422DD902396044C01AB0FB54
:10153000F7F307FB1300ADB245EA004503FB0EF0DD
:10154000A84208D91CEB050503F1FF3816D2A842C2
:1015500014D9023B6544281A43EA014138E7314671
:10156000304607E72F46E4E61846F9E64B45A9D290
:10157000B9EB020865EB0C0E0138A3E74346EAE736
:10158000284694E74146D1E7D0467BE764440238D9
:1015900047E7023B65442FE7084606E73146E9E6A0
:1015A000704700BF2DE9F04188B0002404940594F1
:1015B00006940794254B9A6942F004029A619A694D
:1015C00002F004020192019A9A6942F008029A61BB
:1015D0009A6902F008020292029A9A6942F0100295
:1015E0009A619B6903F010030393039BDFF860800B
:1015F00022464FF4C061404601F061F9154E224683
:101600004021304601F05BF94FF4C063049301259B
:10161000059506940227079704A9404601F036F87D
:101620004023049305950694079704A9304601F0DA
:101630002DF84FF4604304930594069504A90648D9
:1016400001F024F808B0BDE8F08100BF00100240AE
:1016500000080140000C01400010014010B5144684
:101660004FF47A7392B2024802F071FA204610BD2C
:10167000980B002008B50268154B9A4200D008BDAF
:10168000144A136801331360134B1A780A2A0ED0D8
:10169000124B1B78DBB23E2B13D810490B78DBB210
:1016A0000F48C2540B780133DBB20B7009E00B4AD0
:1016B0001378DBB200210A48C1540A4B012018708C
:1016C000117001220449084802F091FCD7E700BFDD
:1016D00000440040B80A0020280A0020B40A002074
:1016E000740A0020FC090020980B00200000000074
:1016F00010B5614A136801331360604C214660489D
:1017000002F032FD5F49204602F022FF70B107303F
:1017100002F0A6FCFEF7D8FE5B4A1060FEF77CFEE6
:1017200002460B46594802F01FFD10BD5849534868
:1017300002F00EFF70B1073002F092FCFEF7C4FE1B
:10174000514A5060FEF768FE02460B46514802F0CF
:101750000BFDEAE75049494802F0FAFE70B1073044
:1017600002F07EFCFEF7B0FE474A9060FEF754FEA2
:1017700002460B46494802F0F7FCD6E748493F4885
:1017800002F0E6FE80B1063002F06AFCFEF79CFE35
:10179000444A10600123D377FEF73EFE02460B4613
:1017A000414802F0E1FCC0E74049344802F0D0FE75
:1017B00060B1043002F058FC0028D4BF00210121A0
:1017C000384B19773A4802F0CFFCAEE739492B483D
:1017D00002F0BEFE48B1073002F046FC0146314B34
:1017E0009877354802F0C0FC9FE73449234802F05F
:1017F000AFFE30B12B4B0022DA77314802F016FDF4
:1018000093E730491D4802F0A3FE30B1254B012279
:10181000DA772D4802F00AFD87E72C49174802F0D5
:1018200097FE38B1184B0022DA619A61284802F01D
:10183000FDFC7AE72749114802F08AFE00283FF4B0
:1018400074AF0022244B254802F08EFC08A3D3E994
:101850000023234802F088FC124BDB7F23B121498F
:10186000214802F081FC60E72049F9E7AFF30080EE
:10187000000000C07268813FF8090020740A00204F
:1018800058C3000864C300082C0A00206CC3000879
:101890007CC3000884C3000894C300089CC30008EC
:1018A000ACC30008080A0020B4C30008D0C3000875
:1018B000D8C30008E4C30008ECC3000800C4000853
:1018C0000CC4000820C400082CC4000840C4000850
:1018D00048C4000854C4000800407F405CC40008AD
:1018E00070C4000850C3000888C4000848C300083A
:1018F0002DE9F04F9BB0284A106853681593916901
:101900001691264B5C6917941E685F68D3F80880AF
:10191000D3F82490D3F828A0D3F82CB0547F157FA7
:10192000FEF77AFDCDE91801139512945846FEF79B
:1019300073FDCDE910015046FEF76EFDCDE90E01B5
:101940004846FEF769FDCDE90C014046FEF764FD0F
:10195000CDE90A013846FEF75FFDCDE908013046C2
:10196000FEF75AFDCDE906011798FEF755FDCDE9C2
:1019700004011698FEF750FDCDE902011598FEF717
:101980004BFDCDE90001DDE91823054802F0ECFB31
:101990001BB0BDE8F08F00BF080A00202C0A002011
:1019A0009CC40008000000002DE9F04F8BB0264BCE
:1019B00018685D68D3F80880244CD4F80090D4F8F7
:1019C00004A0D4F818B0FEF727FD06460F46584687
:1019D000FEF722FDCDE908015046FEF71DFDCDE9D9
:1019E00006014846FEF718FDCDE904014046FEF722
:1019F00013FDCDE902012846FEF70EFDCDE90001F9
:101A000032463B46124802F0AFFB66692069FEF79A
:101A100003FD04460D460AA3D3E90023CDE90223C2
:101A20003046FEF7F9FCCDE9000122462B46094875
:101A300002F09AFB0BB0BDE8F08F00BFAFF300805F
:101A4000000000C07268813F2C0A0020080A0020B4
:101A5000DCC4000824C5000808B500F029FFB0FA6E
:101A600080F0400908BD000010B500F02DFD3A4B94
:101A70001B68C31A132B00D810BD374B1860374CA6
:101A80004FF400512046FFF7E7FF354B18704FF435
:101A900080412046FFF7E0FF324B18704FF40041C1
:101AA0002046FFF7D9FF304B1870304BDB7F5BBB14
:101AB0002B4B1B78E3B12A4B5B78CBB92B4A537F76
:101AC00001332B4C84FB031404EB44041C1BE4B2D1
:101AD0005477012C27D0022C2AD0FCB1234B186854
:101AE000FEF79AFC02460B462146224802F03CFBD8
:101AF0001C4B1B7813B11B4B5B78F3B11A4B1B7853
:101B000013B1194B5B78FBB1154B1A785A70154B12
:101B10001A785A70144B1A785A70ADE713464FF082
:101B20007C521A60DAE7114B4FF07E521A60D5E70B
:101B30000E4B4FF080421A60D0E70C4B00221A7710
:101B40000D4802F073FBD9E7084B01221A770B48C6
:101B500002F06CFBD8E700BF040A0020001001402F
:101B6000E8090020E0090020F0090020080A002010
:101B70005655555558C5000880C5000890C5000841
:101B800030B591B02822002106A802F09BFA00246B
:101B900001940294039404940594012206924FF454
:101BA000803307930A9202250D950E934FF4E013AC
:101BB0000F9306A800F0A0FE0F2301930295039453
:101BC0004FF4806304930594294601A801F0C6F8F8
:101BD00011B030BD000000002DE9F04182B000F0EE
:101BE00055FCFFF7CDFFFFF7DDFC00F073FB00F0C5
:101BF0007DFA00F0ADFA00F0C9FB0122402138481F
:101C000000F05DFE374C00224FF40071204600F0DA
:101C100056FE00224FF48061204600F050FE324B09
:101C2000324A1A604FF07C525A60314A9A60314A07
:101C30005A63314A9A63314C4FF07E532360012539
:101C4000A577657700262677E5772D4B5D701D70AB
:101C50002C4F3146384601F027FD3C212A4801F03F
:101C600091FD2A4801F008FA294802F0DFFA2A46D5
:101C70002849294802F0BBF9284802F0D7FA3B6806
:101C80005E63274802F0D2FA13A3D3E90023CDE91B
:101C900000230022234B244802F066FA2068FEF756
:101CA000BBFB02460B46214802F05EFA5AE0204B8D
:101CB00000221A70FFF71CFD58E000F10040294691
:101CC000FEF756FC084B58618BE0074B00221A6365
:101CD000E1E000BFAFF30080000000C07268813F08
:101CE000000C0140000801402C0A00200000A04028
:101CF000CDCCCC3D00006144000061C4080A002046
:101D00006C0A0020C00A0020080B0020500B0020A5
:101D1000A0C50008280A0020980B0020B4C50008C0
:101D2000C4C5000800407F40E0C5000804C60008A4
:101D3000FC090020774C01224FF40071204600F08E
:101D4000BEFD00224FF48061204600F0B8FD724BCA
:101D50001C682846FEF7DCFE6063704B1B78002B86
:101D600040F0D2806E4B1B78002BA0D16D4B1B78BE
:101D7000002BF2D06B4B00221A706B4B1B685A6A17
:101D80006A4B9A60D868101ADA60B0F5004F01DD2E
:101D9000A0F5803010F5004F01DA00F58030FEF735
:101DA0009DFC6349FEF7EEFC6249FEF79FFD054688
:101DB0005E4C20616049FEF7E5FC606120F0004068
:101DC0006060A37F002B80D020685B49FEF78EFD0A
:101DD000237F002B7FF471AF2946FEF7C9FB574BD9
:101DE0005861564C206865692946FEF7CBFC0746CA
:101DF00060624F492846FEF779FDE169FEF7BAFBBC
:101E00000646E06160684E49FEF7B4FB01464D4866
:101E1000FEF76CFD044601463046FEF76FFE08B142
:101E2000464BDC6104F100442146444BD869FEF77F
:101E300047FE08B1414BDC61404C6068E169FEF748
:101E4000A1FC8046A062A1692846FEF791FB3849B3
:101E5000FEF798FC2062A168FEF794FC0646E0625B
:101E600041463846FEF786FB01463046FEF782FBC8
:101E70002063646B2146FEF741FE08B12F4B1C63C3
:101E80002E4B9C6B2146186BFEF71AFE08B12B4BAC
:101E90001C632A4B9D61294B1C6B244B9C6124F0D5
:101EA000004529492846FEF729FE28B1274928463A
:101EB000FEF706FE00B1254D00212046FEF71EFE6E
:101EC00000287FF437AF00212046FEF7F9FD68B9FE
:101ED000104C00224FF40071204600F0F0FC00226C
:101EE0004FF48061204600F0EAFC30E7094C002204
:101EF0004FF40071204600F0E2FC01224FF48061B3
:101F0000204600F0DCFC22E7044B00221A70FFF7A9
:101F1000ABFD27E700080140C00A0020D8090020D7
:101F2000FC090020FD090020080B0020080A002001
:101F300000007A440000FA4396430B3C2C0A002030
:101F4000CDCCCC3D000048430000A0400000C8427A
:101F500072B6FEE708B50268184B9A4200D008BD79
:101F6000174B01221A70174A536801335360164AFF
:101F7000136801331360632B14D8144A13680133B8
:101F8000136040F6B732934212D8114A13680133F6
:101F90001360092BE3D9134600221A600D4B01226E
:101FA0001A70DCE7134600221A60FFF7A1FCE4E791
:101FB000064B00221A60FFF7F7FCE6E7000400403A
:101FC000FD0900206C0A0020000A0020680A002099
:101FD000DC090020D809002082B00E4B9A6942F03B
:101FE00001029A619A6902F001020092009ADA698C
:101FF00042F08052DA61DB6903F080530193019B68
:10200000054A536823F0E06343F08063536002B0F5
:10201000704700BF0010024000000140FEE7FEE7ED
:10202000FEE7FEE7FEE770477047704708B500F02F
:102030003FFA08BD08B5024801F056F808BD00BFD8
:10204000500B002008B5024801F072FE08BD00BF29
:10205000980B00200120704708B502F009F81623FC
:1020600003604FF0FF3008BD08B54FF0FF31FFF7B8
:10207000F3FFFEE770B50C461646002506E0AFF309
:102080000080214601F8010B01350C46B542F6DB14
:10209000304670BD08B503460B4A126842B10A4A81
:1020A000106803446A46934206D8074A136008BD85
:1020B000054A06491160F2E701F0DAFF0C230360DC
:1020C0004FF0FF30F3E700BFBC0A0020300C0020C7
:1020D0004FF0FF3070474FF400534B6000207047C3
:1020E00001207047002070477047000000B58DB098
:1020F0002422002103A801F0E5FF002301930293AD
:1021000012484FF080420260436083604FF6FF72D6
:10211000C260036183610323039301230593099341
:1021200003A901F02BF950B900230193029301A9EF
:10213000064801F08DFB28B90DB05DF804FBFFF7F0
:1021400007FFF1E7FFF704FFF6E700BF080B0020E9
:1021500000B587B000230293039304930593009383
:1021600001931548154A026047224260836040F29D
:10217000E732C2600361836101F0A8F890B94FF4BF
:102180008053029302A90C4801F000FA68B90023B9
:10219000009301936946084801F05AFB40B907B023
:1021A0005DF804FBFFF7D4FEE9E7FFF7D1FEEEE7A9
:1021B000FFF7CEFEF3E700BF500B00200004004005
:1021C0000268094B9A4200D0704782B003F564431D
:1021D0009A6942F400629A619B6903F40063019377
:1021E000019B02B0704700BF002C014000B587B0D2
:1021F000002302930393049305930368B3F1804F84
:1022000002D007B05DF804FB03F50433DA6942F04D
:102210000102DA61DA6902F001020092009A9A6919
:1022200042F004029A619B6903F004030193019B4D
:102230000323029302A9024800F028FAE1E700BF55
:102240000008014002680E4B9A4200D0704700B56A
:1022500083B003F50333DA6942F00202DA61DB6925
:1022600003F002030193019B002211461D2000F0A0
:1022700043F91D2000F078F903B05DF804FB00BFBE
:102280000004004000B587B0002302930393049339
:10229000059302680D4B9A4202D007B05DF804FB2B
:1022A00003F564439A6942F004029A619B6903F062
:1022B00004030193019B4FF4807302930223039361
:1022C000059302A9024800F0E1F9E6E7002C01407D
:1022D0000008014010B592B00024109411940994A4
:1022E0000A940B940C940D940E940F942022214682
:1022F00001A801F0E7FE2348234B03604723436016
:10230000846040F2E733C36004614461846101F09A
:1023100009F8002829D100231093119310A9194816
:1023200001F096FA20BB6023099300220A920B92D7
:102330000C920D920E920F9209A9124801F0ACF87E
:10234000C8B90023019302930393049305934FF4B8
:1023500000520692089301A90A4801F0AFFA68B941
:102360000848FFF78FFF12B010BDFFF7F1FDD2E76D
:10237000FFF7EEFDD7E7FFF7EBFDE2E7FFF7E8FD3C
:10238000EEE700BFC00A0020002C014008B5084855
:10239000084B03604FF4E133436000238360C36064
:1023A00003610C2242618361C36101F0A0FB08BD9F
:1023B000980B00200044004030B587B00023029302
:1023C00003930493059302681B4B9A4201D007B014
:1023D00030BD03F5E633DA6942F40032DA61DA69D6
:1023E00002F400320092009A9A6942F004029A6163
:1023F0009B6903F004030193019B042302930223CE
:102400000393032305930D4D02A9284600F03EF9DE
:10241000082302930024039404940DEB030128463F
:1024200000F034F922460121262000F065F826202C
:1024300000F09AF8CBE700BF0044004000080140DC
:1024400010B504460E4B18784FF47A73B3FBF0F3D3
:102450000C4A1068B0FBF3F000F094F868B90F2C48
:1024600001D901200AE0002221464FF0FF3000F0A0
:1024700043F8054B1C60002000E0012010BD00BFA8
:1024800004000020000000200800002008B5074AD2
:10249000136843F010031360032000F01BF80F20B3
:1024A000FFF7CEFFFFF798FD002008BD0020024097
:1024B000034A1168034B1B780B441360704700BF3D
:1024C000E00B002004000020014B1868704700BF9B
:1024D000E00B0020074AD36823F4E0631B041B0CC5
:1024E000000200F4E060034343F0BF6343F40033B1
:1024F000D360704700ED00E000B5194BDB68C3F313
:102500000223C3F1070CBCF1040F28BF4FF0040CE9
:1025100003F1040EBEF1060F18D9033B4FF0FF3E46
:102520000EFA0CFC21EA0C0199400EFA03F322EAA0
:102530000303194300280BDB0901C9B200F1604015
:1025400000F5614080F800135DF804FB0023E5E727
:1025500000F00F000901C9B2024B1954F4E700BFA3
:1025600000ED00E014ED00E0002807DB00F01F02A2
:10257000400901239340024A42F82030704700BFCF
:1025800000E100E00138B0F1807F0BD24FF0E02392
:102590005861054AF02182F8231000209861072233
:1025A0001A6170470120704700ED00E090F821307B
:1025B000DBB2022B06D004238363002380F8203093
:1025C000012070470268136823F00E03136002684D
:1025D000136823F001031360036CC16B012202FA3C
:1025E00003F34B6080F82120002380F82030184648
:1025F0007047000008B590F82130DBB2022B03D001
:1026000004238363012008BD0268136823F00E03CE
:1026100013600268136823F0010313600368194A0A
:10262000934214D0143293421FD0143293421ED0DE
:10263000143293421ED0143293421ED0143293426D
:1026400002D04FF0807203E04FF4801200E00122CC
:102650000D4B5A60012380F82130002380F8203090
:10266000436B6BB198470020CDE71022F0E74FF4A1
:102670008072EDE74FF48052EAE74FF48032E7E7EB
:102680000020C0E7080002400000024070B582B0A0
:102690000024A446A6E0804DAA4210D007D97F4D61
:1026A000AA420CD005F58035AA4208D013E0A5F562
:1026B0008015AA4203D005F57025AA4207D18A6881
:1026C000002A58D0012A51D04361082403E0A5F51F
:1026D0008015AA42F3D0BEF1FF0F4ED80646BEF1D8
:1026E000FF0F4CD84FEA8C0233680F25954023EA40
:1026F000050304FA02F2134333604B6813F0805F62
:102700006ED0674B9A6942F001029A619B6903F0AF
:1027100001030193019B4FEA9C02951C614B53F806
:1027200025600CF003039D000F23AB4026EA03064F
:102730005D4B984229D003F58063984200F08E806B
:1027400003F58063984200F08B8003F58063984224
:1027500019D004231AE0CC68BDE7CC680434BAE78A
:10276000CC680834B7E7CC680C34B4E703610824BC
:10277000B1E70024AFE70424ADE7061DAFE7ACF1F5
:1027800008029200B0E7032300E00023AB4033438C
:102790000232444D45F822304B6813F4801F61D05B
:1027A000424A936843EA0E0393604B6813F4001F98
:1027B0005ED03E4AD36843EA0E03D3604B6813F4FD
:1027C000003F5BD0394A536843EA0E0353604B68BD
:1027D00013F4803F58D0354A136843EA0E03136060
:1027E0000CF1010C0A6832FA0CF353D0012303FAFE
:1027F0000CF302EA030E33EA0202F1D14A68122A0C
:102800003FF649AF122A3FF666AF01A555F822F010
:10281000BF26000857270008612700087327000813
:10282000D7260008D7260008D7260008D726000894
:10283000D7260008D7260008D7260008D726000884
:10284000D7260008D7260008D7260008D726000874
:10285000D72600085B27000867270008012395E7B3
:10286000022393E7114A936823EA0E0393609CE7DF
:102870000E4AD36823EA0E03D3609FE70B4A5368DE
:1028800023EA0E035360A2E7084A136823EA0E0303
:102890001360A5E702B070BD0000221000003110E7
:1028A0000010024000000140000801400004014007
:1028B0008368194201D001207047002070470AB197
:1028C00001617047090401617047000082B0084B44
:1028D0001B68084AA2FB03235B0A00FB03F3019376
:1028E00000BF019B5A1E0192002BF9D102B0704724
:1028F00000000020D34D6210002800F0F18170B577
:1029000082B00446036813F0010F2CD0994B5B682A
:1029100003F00C03042B1DD0964B5B6803F00C03F3
:10292000082B12D06368B3F5803F41D0002B55D1FE
:1029300003F1804303F504331A6822F480321A60ED
:102940001A6822F480221A6037E08A4B5B6813F41D
:10295000803FE7D0874B1B6813F4003F03D06368C8
:10296000002B00F0BF81236813F0020F75D0814B5C
:102970005B6813F00C0F5FD07E4B5B6803F00C03B9
:10298000082B54D02369002B00F08A807A4B012257
:102990001A60FFF799FD0546764B1B6813F0020F8E
:1029A00075D1FFF791FD401B0228F5D903209EE168
:1029B000704A136843F480331360636843B3FFF7CE
:1029C00083FD05466B4B1B6813F4003FCBD1FFF72B
:1029D0007BFD401B6428F5D9032088E1B3F5A02FC7
:1029E00009D0644B1A6822F480321A601A6822F403
:1029F00080221A60E1E703F18043A3F53C331A68B3
:102A000042F480221A601A6842F480321A60D4E7D5
:102A1000FFF75AFD0546574B1B6813F4003FA2D041
:102A2000FFF752FD401B6428F5D903205FE1514BAD
:102A30005B6813F4803FA5D14E4B1B6813F0020F67
:102A400003D02369012B40F04F814A4A136823F0D9
:102A5000F803616943EAC1031360236813F0080FA8
:102A600033D0A369002B5CD0434B0122C3F88024F0
:102A7000FFF72AFD05463F4B5B6A13F0020F21D199
:102A8000FFF722FD401B0228F5D903202FE1394A28
:102A9000136823F0F803616943EAC1031360DCE7BC
:102AA000354B00221A60FFF70FFD0546314B1B68BE
:102AB00013F0020FD1D0FFF707FD401B0228F5D914
:102AC000032014E10120FFF701FF236813F0040F36
:102AD00000F09680274BDB6913F0805F34D1254BE3
:102AE000DA6942F08052DA61DB6903F080530193C6
:102AF000019B0125214B1B6813F4807F26D0E368DE
:102B0000012B3DD0002B53D103F1804303F5043357
:102B10001A6A22F001021A621A6A22F004021A6288
:102B200033E0154B0022C3F88024FFF7CDFC0546A7
:102B3000104B5B6A13F0020FC7D0FFF7C5FC401BB8
:102B40000228F5D90320D2E00025D3E70B4A136809
:102B500043F480731360FFF7B7FC0646074B1B680E
:102B600013F4807FCBD1FFF7AFFC801B6428F5D92D
:102B70000320BCE000100240000042420070004010
:102B80005F4A136A43F001031362E36833B3FFF74C
:102B90009BFC06465A4B1B6A13F0020F2FD1FFF71E
:102BA00093FC801B41F288339842F3D903209EE0C6
:102BB000052B09D0524B1A6A22F001021A621A6AD6
:102BC00022F004021A62E0E74D4B1A6A42F0040256
:102BD0001A621A6A42F001021A62D6E7FFF774FC21
:102BE0000646474B1B6A13F0020F08D0FFF76CFC38
:102BF000801B41F288339842F3D9032077E0E5B98E
:102C0000E369002B72D03E4A526802F00C02082A97
:102C100056D0022B17D03B4B00221A66FFF754FC0C
:102C20000446374B1B6813F0007F47D0FFF74CFC7E
:102C3000001B0228F5D9032059E0314AD36923F05B
:102C40008053D361DCE72F4B00221A66FFF73CFC70
:102C500005462B4B1B6813F0007F06D0FFF734FCB2
:102C6000401B0228F5D9032041E0236AB3F5803FD9
:102C70001AD023494B6823F47413226A606A024312
:102C800013434B601F4B01221A66FFF71DFC0446DD
:102C90001B4B1B6813F0007F0ED1FFF715FC001BC8
:102CA0000228F5D9032022E0154A536823F40033A3
:102CB000A1680B435360DCE7002018E0002016E019
:102CC000012B16D00E4B5B6803F48031226A9142CF
:102CD00011D103F47013626A93420ED1002006E012
:102CE00001207047012002E0012000E0002002B036
:102CF00070BD0120FBE70120F9E70120F7E700BFE5
:102D000000100240000042420F4B5B6803F00C02CF
:102D1000082A01D00D487047C3F383420C49885CF0
:102D200013F4803F0BD0084B5B68C3F34043094A60
:102D3000D35C064A02FB00F0B0FBF3F07047064B91
:102D400003FB00F0704700BF0010024000127A0041
:102D500054C6000864C6000800093D00002800F0C1
:102D6000A08070B50D460446524B1B6803F0070364
:102D70008B420BD24F4A136823F007030B431360B7
:102D8000136803F007038B4240F08D80236813F033
:102D9000020F17D013F0040F04D0474A536843F4CE
:102DA000E0635360236813F0080F04D0424A53686D
:102DB00043F460535360404A536823F0F003A16822
:102DC0000B435360236813F0010F31D06368012B6C
:102DD00020D0022B25D0384A126812F0020F64D09E
:102DE00035494A6822F0030213434B60FFF76CFB3E
:102DF0000646314B5B6803F00C036268B3EB820F4D
:102E000016D0FFF761FB801B41F288339842F0D95E
:102E1000032045E0284A126812F4003FE0D1012067
:102E20003EE0254A126812F0007FD9D1012037E038
:102E3000204B1B6803F00703AB420AD91D4A1368F5
:102E400023F007032B431360136803F00703AB421F
:102E50002DD1236813F0040F06D0174A536823F4CA
:102E6000E063E1680B435360236813F0080F07D059
:102E7000114A536823F46053216943EAC103536044
:102E8000FFF742FF0C4B5B68C3F303130B4AD35CA1
:102E9000D8400B4B18600B4B1868FFF7D1FA002095
:102EA00070BD012070470120FAE70120F8E70120FA
:102EB000F6E700BF00200240001002403CC60008B8
:102EC0000000002008000020014B1868704700BF78
:102ED0000000002008B5FFF7F7FF044B5B68C3F361
:102EE0000223034AD35CD84008BD00BF0010024053
:102EF0004CC6000808B5FFF7E7FF044B5B68C3F357
:102F0000C223034AD35CD84008BD00BF0010024072
:102F10004CC6000870B4036A026A22F00102026221
:102F20004668826922F073020C6844EA020523F0C5
:102F300002028B6813430D4CA04209D00B4CA042F7
:102F40000DD0466085614A684263036270BC704779
:102F500023F00803CA68134323F00403EEE726F4C2
:102F600040764A6932438E691643EAE7002C0140F5
:102F700030B4036A026A22F4807202624568C26950
:102F800022F073020C68224323F400738C6843EA36
:102F900004230F4CA04209D00D4CA0420ED0456036
:102FA000C2614A68C263036230BC704723F40063A5
:102FB000CC6843EA042323F48063EDE725F440550D
:102FC0004C6945EA04158C6945EA0415E7E700BF3A
:102FD000002C014030B4036A026A22F4805202627B
:102FE0004468C26922F4E6420D6842EA052223F4ED
:102FF00000538D6843EA0533074DA84206D044606C
:10300000C2614A680264036230BC704724F48044A1
:103010004D6944EA8514F2E7002C014010B4036ABC
:10302000046A24F001040462846924F0F00C4CEA80
:10303000021223F00A030B438261036210BC704743
:1030400010B4036A046A24F010040462846924F44E
:10305000704C4CEA023223F0A00343EA0113826170
:10306000036210BC7047836823F070030B4343F086
:10307000070383607047000090F83D30DBB2012BFE
:1030800027D1022380F83D300268D36843F0010362
:10309000D3600368114A934210D0B3F1804F0DD032
:1030A000A2F59432934209D002F58062934205D092
:1030B0001A6842F001021A60002070479A6802F014
:1030C0000702062A07D01A6842F001021A6000209F
:1030D0007047012070470020704700BF002C01405E
:1030E000704770477047704770B504460368DE68E4
:1030F0001D6915F0020F10D016F0020F0DD06FF001
:1031000002021A610123037703689B6913F0030F1E
:103110005ED0FFF7E6FF0023237715F0040F12D0EF
:1031200016F0040F0FD023686FF004021A61022317
:10313000237723689B6913F4407F4FD02046FFF725
:10314000D0FF0023237715F0080F12D016F0080FD8
:103150000FD023686FF008021A61042323772368D5
:10316000DB6913F0030F40D02046FFF7BAFF0023BE
:10317000237715F0100F12D016F0100F0FD0236820
:103180006FF010021A61082323772368DB6913F4B8
:10319000407F31D02046FFF7A4FF0023237715F0AE
:1031A000010F02D016F0010F2DD115F0800F02D0C3
:1031B00016F0800F2FD115F0400F02D016F0400FFF
:1031C00031D115F0200F02D016F0200F33D170BD91
:1031D000FFF786FF2046FFF785FF9CE72046FFF7B5
:1031E0007FFF2046FFF77EFFABE72046FFF778FF23
:1031F0002046FFF777FFBAE72046FFF771FF20462A
:10320000FFF770FFC9E723686FF001021A612046DB
:10321000FEF7A0FEC9E723686FF080021A6120461E
:1032200000F076FBC7E723686FF040021A61204682
:10323000FFF759FFC5E723686FF020021A612046A7
:1032400000F065FBC3E7000003681F4A90420AD004
:10325000B0F1804F07D0A2F59432904203D002F52E
:103260008062904203D123F070034A681343164AE8
:1032700090420AD0B0F1804F07D0A2F5943290422C
:1032800003D002F58062904203D123F44073CA68F0
:10329000134323F080034A69134303608B68C362BE
:1032A0000B688362084B98420AD00123436103698B
:1032B00013F0010F03D0036923F00103036170478A
:1032C0000B690363F1E700BF002C014040B310B568
:1032D000044690F83D30F3B1022384F83D30214696
:1032E00051F8040BFFF7B0FF012384F8463084F84F
:1032F0003E3084F83F3084F8403084F8413084F820
:10330000423084F8433084F8443084F8453084F8FF
:103310003D30002010BD80F83C30FEF793FFDBE726
:103320000120704740B310B5044690F83D30F3B12A
:10333000022384F83D30214651F8040BFFF784FF47
:10334000012384F8463084F83E3084F83F3084F816
:10335000403084F8413084F8423084F8433084F8B7
:10336000443084F8453084F83D30002010BD80F8AA
:103370003C30FEF725FFDBE701207047002857D0DF
:1033800070B50D46044690F83D30002B4BD002231B
:1033900084F83D302268936823F4804323F00703C8
:1033A0009360214651F8040BFFF74EFF21688A68AD
:1033B0008B690E6A2868104323F4407C2CF0030CC0
:1033C000AA68AB6942EA032343EA0C0323F47C4373
:1033D00023F0FC03EA69D5F80CC04CEA022C4CEA55
:1033E000030C2A6A13032A6943EA021343EA0C0313
:1033F00026F022066A686D6942EA05123243886047
:1034000021688B6123681A62012384F8463084F8AE
:103410003E3084F83F3084F8423084F8433084F8FA
:103420003D30002070BD80F83C30FEF7DFFEAEE797
:103430000120704730B4036A026A22F0100202626F
:103440004468826922F4E6420D6842EA052223F0CC
:1034500020038D6843EA05130E4DA84209D00D4D97
:10346000A8420ED0446082614A688263036230BC25
:10347000704723F08003CD6843EA051323F040032F
:10348000EDE724F440644D6944EA85048D6944EA1B
:103490008504E7E7002C014038B590F83C30012B5B
:1034A00066D004460D46012380F83C300C2A5AD8D9
:1034B000DFE802F0075959591B59595930595959E0
:1034C00044000068FFF726FD2268936943F0080373
:1034D00093612268936923F00403936122689369DE
:1034E00029690B43936100203EE00068FFF7A2FFCB
:1034F0002268936943F4006393612268936923F41B
:103500008063936122689369296943EA0123936187
:10351000002029E00068FFF72BFD2268D36943F003
:103520000803D3612268D36923F00403D3612268BE
:10353000D36929690B43D361002015E00068FFF7C8
:1035400049FD2268D36943F40063D3612268D369DB
:1035500023F48063D3612268D369296943EA012394
:10356000D361002000E00120002384F83C3038BD06
:103570000220FCE710B4846824F47F4C42EA032262
:103580000A4342EA0C02826010BC704790F83C305B
:10359000012B78D010B50446012380F83C3002237B
:1035A00080F83D300268936823F47F4323F077036B
:1035B00093600B68602B4CD029D8402B54D00CD989
:1035C000502B22D1CA6849680068FFF727FD5021B7
:1035D0002068FFF748FD002005E0202B0DD009D919
:1035E000302B0AD00120012384F83D30002384F8D9
:1035F0003C3010BD0BB1102B05D119462068FFF7E8
:1036000032FD0020EFE70120EDE70120EBE7B3F505
:10361000805F34D0B3F5005F0CD1CB684A6889680D
:103620000068FFF7A7FF2268936843F48043936024
:103630000020D8E7702B24D1CB684A6889680068DD
:10364000FFF798FF2268936843F0770393600020A8
:10365000C9E7CA6849680068FFF7F2FC6021206882
:10366000FFF701FD0020BEE7CA6849680068FFF760
:10367000D5FC40212068FFF7F6FC0020B3E70020CE
:10368000B1E70120AFE70220704701F01F010123DD
:1036900003FA01FC036A23EA0C030362036A02FAD9
:1036A00001F10B430362704710B50446084651BB55
:1036B00094F83E30DBB2013B18BF0123002B5BD1F5
:1036C000002839D1022384F83E30012201462068C7
:1036D000FFF7DBFF23682A4A93423DD02368284A3C
:1036E00093423ED0B3F1804F3BD0A2F59432934247
:1036F00037D002F58062934233D01A6842F001025B
:103700001A60002039E0042908D008290DD094F867
:103710004130DBB2013B18BF0123CFE794F83F30C3
:10372000DBB2013B18BF0123C8E794F84030DBB29D
:10373000013B18BF0123C1E7042805D0082807D0A2
:10374000022384F84130C0E7022384F83F30BCE70D
:10375000022384F84030B8E75A6C42F400425A64BD
:10376000BCE79A6802F00702062A07D01A6842F0FE
:1037700001021A60002000E0012010BD0020FCE7DB
:10378000002C014038B5044690F83E00C0B294F8D1
:103790003F3094F84220D2B294F843C00D46B1B9FC
:1037A000012849D1012A48D1022384F83E3084F807
:1037B00042307DB3042D39D0012200212068FFF76B
:1037C00064FF012204212068FFF75FFF27E0DBB2DE
:1037D0005FFA8CFC042912D0012833D1012B2CD1A3
:1037E000012A31D1BCF1010F30D1022384F83E30DF
:1037F00084F83F3084F8423084F84330D9E7012B15
:103800001CD1BCF1010F1BD1022384F83F3084F896
:103810004330CEE7012200212068FFF736FF2268FF
:10382000136843F001031360002006E00122042125
:103830002068FFF72AFFF2E7012038BD0120FCE7EE
:103840001846FAE70120F8E71846F6E71046F4E7CD
:1038500090F83C30012B2CD010B4012380F83C3080
:10386000022380F83D3003685A689C6822F0700C8F
:103870000A6842EA0C025A6003680F4A93420AD06F
:10388000B3F1804F07D0A2F59432934203D002F5F2
:103890008062934204D124F080044A6814439C60FF
:1038A000012380F83D30002380F83C30184610BCDE
:1038B00070470220704700BF002C014090F83C3058
:1038C000012B22D0012380F83C30CB6823F44073D5
:1038D0008A68134323F480634A68134323F4006324
:1038E0000A68134323F480530A69134323F40053F3
:1038F0004A69134323F48043CA691343026853643B
:10390000002380F83C30184670470220704770470B
:103910007047026802F10C0353E8003F23F49073F0
:103920000C3242E800310029F3D1026802F114039D
:1039300053E8003F23F00103143242E8003100292C
:10394000F3D1036B012B05D0202380F842300023F4
:1039500003637047026802F10C0353E8003F23F051
:1039600010030C3242E800310029F3D1ECE790F863
:103970004130DBB2212B01D0022070478368B3F5C0
:10398000805F17D0036A5A1C02621A7803685A6073
:10399000C38C9BB2013B9BB2C3844BB90268D36812
:1039A00023F08003D3600268D36843F04003D36000
:1039B000002070470369002BE4D1036A1B8802686A
:1039C000C3F308035360036A02330362E0E70000B5
:1039D00010B504460268136923F44053C1680B43D1
:1039E000136183680269134342691A430168CB6813
:1039F00023F4B05323F00C031343CB6002685369E4
:103A000023F4407381690B4353610268134B9A425C
:103A100020D0FFF75FFA024602EB820202EB82023D
:103A200063689B00B2FBF3F20D48A0FB0231490929
:103A3000642303FB11231B013233A0FB03235B0927
:103A400003F0F00202EB011203F00F0321681344AC
:103A50008B6010BDFFF74EFA0246DDE700380140EB
:103A60001F85EB512DE9F04383B005460E461746FE
:103A70009946DDF828802C68246836EA04030CBFD8
:103A80004FF0010C4FF0000CBC4528D1B8F1FF3FBE
:103A9000F1D0FEF719FDA0EB0900404523D8B8F19D
:103AA000000F22D02B68DA6812F0040FE3D0802ECA
:103AB000E1D0402EDFD01A6812F0080FDBD00024CE
:103AC00001941A6801925B680193019B2846FFF7F5
:103AD00020FF08236B6485F84040012000E00020AF
:103AE00003B0BDE8F0830320FAE70320F8E760B3F2
:103AF00010B5044690F8413013B3242384F84130C4
:103B00002268D36823F40053D3602046FFF760FF98
:103B10002268136923F4904313612268536923F0E8
:103B20002A0353612268D36843F40053D360002012
:103B30006064202384F8413084F84230606310BD13
:103B400080F84030FEF738FCD7E7012070472DE9B8
:103B5000F04182B01E4690F84130DBB2202B56D1A6
:103B600004460D469046002955D00AB901204FE081
:103B700000234364212380F84130FEF7A5FC07466B
:103B8000A4F82480A4F82680A368B3F5805F02D04F
:103B90004FF0000814E023692BB34FF000080FE04A
:103BA000202384F84130032032E038F8023B2268B9
:103BB000C3F308035360E28C92B2013A92B2E284FA
:103BC000E38C9BB293B100963B46002280212046B5
:103BD000FFF748FF0028E3D1002DE6D015F8012BB0
:103BE00023685A60E7E7A8460025E9E700963B46C8
:103BF000002240212046FFF735FF18B9202384F822
:103C0000413005E0202384F84130032000E0022009
:103C100002B0BDE8F0810120FAE7704708B50168FD
:103C2000CA6822F04002CA60202280F84120FFF7D3
:103C3000F4FF002008BD704708B5406A0023C38523
:103C4000C384FFF7F8FF08BD704790F84230DBB23D
:103C5000222B69D18368B3F5805F4FD0826AB3F5B8
:103C6000805F04D0002B56D10369002B53D1036829
:103C70005B681370836A01338362C38D9BB2013B1F
:103C80009BB2C385002B51D100B583B00268D368C5
:103C900023F02003D3600268D36823F48073D360D9
:103CA0000268536923F001035361202380F84230F6
:103CB00000234363036B012B33D1002303630268AA
:103CC00002F10C0353E8003F23F010030C3242E8EA
:103CD00000310029F3D103681A6812F0100F06D0E2
:103CE000002201921A6801925B680193019B818D09
:103CF000FFF7AAFF002003B05DF804FB0269002A69
:103D0000ACD1826A03685B68C3F308031380836ADB
:103D100002338362B1E703685B6803F07F031370CB
:103D2000A8E7FDF7A7FCE5E70220704700207047F1
:103D300030B583B0044602681368D068516913F047
:103D40000F0505D113F0200F02D010F0200F19D16C
:103D50002DB111F0010119D110F4907F16D1216B12
:103D600001297DD013F0800F03D010F0800F40F0B8
:103D7000188113F0400F03D010F0400F40F0158170
:103D800003B030BD2046FFF760FFF9E713F0010FE5
:103D900006D010F4807F03D0626C42F001026264AE
:103DA00013F0040F04D019B1626C42F00202626495
:103DB00013F0020F04D019B1626C42F00402626485
:103DC00013F0080F07D010F0200F00D119B1626C6A
:103DD00042F008026264626C002AD1D013F0200F16
:103DE00002D010F0200F29D123685B6903F0400353
:103DF000626C12F0080F00D163B32046FFF789FD13
:103E000023685B6913F0400F20D0226802F114038D
:103E100053E8003F23F04003143242E80031002908
:103E2000F3D1E36B73B1634A5A63E06BFEF7E2FBD5
:103E30000028A5D0E06B436B9847A1E72046FFF729
:103E400004FFD1E72046FFF7F6FE99E72046FFF78B
:103E5000F2FE95E72046FFF7EEFE002363648FE74E
:103E600013F0100F3FF47EAF10F0100F3FF47AAF55
:103E7000002301931368019353680193019B5369D5
:103E800013F0400F51D0E26B13685B689BB2002BBC
:103E90003FF476AFA18D99427FF672AFE3859369C7
:103EA000202B37D0226802F10C0353E8003F23F4A3
:103EB00080730C3242E800310029F3D1226802F10C
:103EC000140353E8003F23F00103143242E80031A9
:103ED0000029F3D1226802F1140353E8003F23F0D4
:103EE0004003143242E800310029F3D1202384F842
:103EF000423000232363226802F10C0353E8003FA1
:103F000023F010030C3242E800310029F3D1E06BBA
:103F1000FEF74CFB02236363A18DE38D9BB2C91AAC
:103F200089B22046FFF790FE2AE7A18DE38D9BB270
:103F3000C91A89B2E38D9BB2002B3FF421AF00294F
:103F40003FF41EAF226802F10C0353E8003F23F454
:103F500090730C3242E800300028F3D1226802F15D
:103F6000140353E8003F23F00103143242E8003009
:103F70000028F3D1202384F84230002323632268F1
:103F800002F10C0353E8003F23F010030C3242E827
:103F900000300028F3D1022363632046FFF754FE6C
:103FA000EEE62046FFF7E3FCEAE62046FFF736FEA2
:103FB000E6E600BF393C000881628285C2850023A5
:103FC0004364222380F84230036923B10268D36836
:103FD00043F48073D3600268536943F00103536173
:103FE0000268D36843F02003D3600020704708B50F
:103FF00090F84230DBB2202B08D149B10AB9012038
:1040000008BD00230363FFF7D7FFF9E70220F7E7B6
:104010000120F5E7FEF768F80B480C490C4A00232D
:1040200002E0D458C4500433C4188C42F9D3094A6E
:10403000094C002301E013600432A242FBD300F0DC
:104040001DF8FDF7C9FD704700000020BC090020E5
:1040500070CC0008BC0900202C0C0020FEE70000FA
:10406000002101F0C5BA00BF0A22002101F05CBBAB
:10407000014B1868704700BF0C00002070B50D4E52
:104080000D4D761BB61006D0002455F8043B0134C4
:104090009847A642F9D1094E094D08F049F9761B17
:1040A000B61006D0002455F8043B01349847A642C8
:1040B000F9D170BD64CC000864CC00086CCC000859
:1040C00064CC0008830730B548D0541E002A3FD086
:1040D0000346CAB201E0013C3AD303F8012B9D0725
:1040E000F9D1032C2DD9CDB245EA05250F2C45EA8F
:1040F000054536D9A4F1100222F00F0C03F1200E71
:10410000E6444FEA121C03F1100242E9045542E969
:10411000025510327245F8D10CF1010214F00C0F67
:1041200003EB021204F00F0C13D0ACF1040323F0E4
:1041300003030433134442F8045B9342FBD10CF0B5
:1041400003042CB1CAB21C4403F8012B9C42FBD1DE
:1041500030BD64461346002CF4D1F9E703461446FB
:10416000BFE71A46A446E0E70FB400B5074A83B09C
:1041700004AB106853F8042B8168019301F0EAFA4C
:1041800003B05DF804EB04B0704700BF0C000020E2
:1041900030B5054689B008460C4600F04FF80121BD
:1041A0000223214A04940692AA6B04AC05900844A9
:1041B00001940791AC680293039022B3636E13F0ED
:1041C000010FB4F90C309AB201D1980525D59104AC
:1041D00006D4626E43F4005322F40052A381626657
:1041E000284601AA214604F0D7FB636E002814BFBD
:1041F0004FF0FF350A25DA0702D4A3899B0506D5BF
:10420000284609B030BD284604F0CEF9D6E7A06DA7
:1042100005F092F9284609B030BDA06D05F08AF985
:10422000B4F90C309AB2D2E77CC50008024B0146C3
:104230001868FFF7ADBF00BF0C00002020F003019D
:1042400010F00300C0F1000051F8043B00F1040C31
:104250004FEACC0C6FF000021CBF22FA0CF21343A1
:104260004FF0010C4CEA0C2C4CEA0C4CA3EB0C026A
:1042700022EA030212EACC1204BF51F8043B0430D4
:10428000F4D0C2F1000102EA0102B2FA82F2C2F1F4
:104290001F0200EBD20070472DE9F04F012B1D46A5
:1042A00081460F469046ADF21C4D40F247810123F6
:1042B00000219C464FF0FF341A4606E019460122C1
:1042C000A3EB040C8B189D4210D908EB0400805C12
:1042D00018F803608642F1D300F081804FF0010CA2
:1042E00062460C4661448B189D42EED8CDF808C05A
:1042F0004FF0010C00204FF0FF366146634606E0A8
:1043000018460121A3EB060C43189D420FD908EB78
:10431000010218F803E0925D9645F1D865D04FF0A0
:10432000010C61460646604443189D42EFD80136B1
:1043300004F1010BB34502D8B346CDF808C005AB74
:104340000DF2144243F8045F9342FBD1002D00F0BC
:10435000FA806C1E06AE08F1FF3208EB04000196ED
:1043600012F8011FD3432B444344904246F82130B6
:10437000F6D1029E5A46404608EB060105F058FC6D
:10438000002840F083800BF1FF3305938246AB1B7E
:104390000646039309EB060E1EF80430019A52F804
:1043A000233043B3BAF1000F04D0029A9342039A28
:1043B00038BF13464FF0000A1E447B1BB342E9D2BC
:1043C00009EB070045F4006106F062FD07447B1B22
:1043D000B342DFD200200DF21C4DBDE8F08F9445B2
:1043E0000ABF0122013261446CE761450ABF4018EF
:1043F0000131012188E7D3455B4638BF5346A342CC
:1044000014D2591E9A1941444A4402E00133A3428E
:104410000CD212F8010B11F801CF8445F6D0CBF184
:10442000010216444FF0000A1E44C6E7D345059B1F
:104430007DD90BEB06024A4408EB0B01CDF810B016
:1044400002E0534516D0034612F8010D11F801CDD4
:1044500003F1010B844503F1FF30F2D05B46DDF838
:1044600010B00AF1010A9A450BD8029BDDF80CA0A6
:104470001E44A2E753460AF1010A9A45DDF810B03E
:10448000F3D970460DF21C4DBDE8F08FA5EB0B0380
:104490005B4538BF5B4600260BF1FF3202920133C9
:1044A000CBF10102039245F4006A049309EB060E76
:1044B0001EF80430019A52F823306BB11E447B1B66
:1044C0009E42F3D909EB0700514606F0E1FC074490
:1044D0007B1B9E42EAD97DE7A34513D202990BEBE1
:1044E00006025B464A44414402E00133A34209D23A
:1044F00012F8010B11F801CF8445F6D0039A164447
:104500001E44DCE7BBF1000F13D00BEB060149445E
:1045100008EB0B0202E0013B43450AD0134611F8B9
:10452000010D12F801CD8445F5D0049BC6E75B462A
:1045300097E770460DF21C4DBDE8F08F01234FF058
:10454000000B0293FBE606AB4FF0FF34019310E73C
:104550002DE9F0410D460978044690B0002953D06A
:104560006A78002A00F08380AB78002B50D0E8787E
:10457000002800F083802B79002B57D02846FFF7C6
:104580005DFE0646204646F4007106F081FC864238
:104590005CD8FE2E00F28780801B271840226846D8
:1045A000711CFFF78FFD7EB16A1E5FFA86FC9019C1
:1045B00012F8013F03F03F034033A91A6B446144F2
:1045C000824203F8401CF3D1013CA35D03F03F039A
:1045D00040336B4413F8400C0444A74203D23AE042
:1045E0004444A74237D314F806C020460CF03F0CD1
:1045F0000CF140030DEB030C324629461CF8408CAD
:1046000005F016FB0028EBD1204610B0BDE8F08184
:10461000007842EA014200E00C4640EA0343611C94
:10462000A0B19A426078F7D1013CEDE722786AB1F7
:10463000296809BA01E099421ED0204642EA0323C4
:1046400014F8012F002AF6D1994215D000242046F3
:1046500010B0BDE8F081BB5DB819002BF6D04FF467
:10466000006106F015FC0744BC42ADD9EEE710B07E
:10467000BDE8F04106F034BBC41EC5E7120442EAAF
:10468000016242EA03230146207800E02C4640EA1A
:104690000102651C11020028D8D0B3EB022F60780C
:1046A000F4D1023CB0E7014633462A46204610B01A
:1046B000BDE8F041FFF7F0BD2DE9F04F002582463F
:1046C0009748A1B00068884607921C4608901C9540
:1046D000FFF7B4FD0021834600204246CDE90401E6
:1046E000CDF86C80174612F8013B2D2B2FD8DFE850
:1046F00013F0A0002E002E002E002E002E002E0003
:104700002E002E00AD00AD00AD00AD00AD002E00BE
:104710002E002E002E002E002E002E002E002E0029
:104720002E002E002E002E002E002E002E002E0019
:104730002E00AD002E002E002E002E002E002E008A
:104740002E002E002E002E0002042E00F803002260
:104750000992302B7CD000220B922F2B1C4640F26A
:1047600029854FF0000938464E464D4612E001308B
:10477000082D1B90C8BF09EB89090478C6BF03EB5D
:104780004903A3F13009A2F130062F2C234605F18D
:1047900001056EDD06EB8602392C03EB4202E6DDF5
:1047A0005A46089906F002FB002835D11B9B1A4691
:1047B0005B441B9312F80B40002D40F0A885302C71
:1047C00040F06085C3F10102981801331B931C78F7
:1047D000302CF9D0A4F13103082B00F23583A4F179
:1047E000300E1B9C00230125274600F1010B0A9384
:1047F000002006EB86060EEB4606631C1B936478CE
:10480000A4F13001092900F2E9828E460130002925
:1048100040F0AF841B9CF0E70020652C8346844663
:104820000A9501D0452C30D1002D7ED10B9B03433E
:104830007AD14FF0000B079BD94613B1079BC3F801
:1048400000805846494621B0BDE8F08F1B9249E7E9
:104850007B7803F0DF03582B00F06D8401371B9742
:104860003B78302BFAD0002B00F0CE8001220B9247
:1048700073E75A46089906F099FA002800F0D780A5
:104880000A954FF0000B5846DC4600230C93002D90
:1048900000F096800A9A30461346002A08BF2B463D
:1048A0000A93FBF797FD02460B46DDF830C0102D4A
:1048B0002C46ACEB0B0CA8BF1024092DCDE904232A
:1048C000CDF82CC014DD174B03EBC40353E91223BE
:1048D000FCF7B4F90246484690468946FBF77AFD54
:1048E00002460B4640464946FBF738FCCDE9040139
:1048F0000F2D00F3A5800B9B002B00F00F840B9B6A
:1049000040F38A83162B40F3F4840B9AC5F12503F8
:10491000934280F207850B9B2C1B1C4496E000BF42
:1049200068CA000828CB00080025DDF86C8008F173
:1049300001031B9398F801402B2C00F082822D2C50
:1049400000F01B824FF0000EA4F13003092B00F29F
:104950000F82302C05D11B9B01331B931C78302C0C
:10496000FAD0A4F13103082B8FD81B9AA4F130019F
:10497000531C1B93547808922F2C09DC00F029BC9F
:104980001C4601331B936478A2F130012F2C05DD06
:1049900001EB8102392C04EB4202F1DD089A9B1AEB
:1049A000082B40F3168444F61F630C93BEF1000FEE
:1049B0003FF46DAF0C9B5B420C93002D7FF46AAF0C
:1049C0000B9B034320D1BCF1000F7FF432AF692C65
:1049D00000F01B8400F33983492C00F016844E2C20
:1049E0007FF427AFAA491BA804F0A6FC00283FF4D7
:1049F00020AF1B9B1B78282B00F07385A54806F081
:104A000011F98346894602E04FF0000BD946079A18
:104A10000AB11B9B1360099B002B3FF412AF09F1F5
:104A2000004399465846494621B0BDE8F08F1B9B8C
:104A30000A9503EB0B021B9213F80B408346DFE64B
:104A40000B9B2C1B1C44002C40F3048314F00F0020
:104A50000AD0DDE90423904901EBC001D1E900014E
:104A6000FCF7ECF8CDE9040134F00F0340F0868246
:104A7000002308932B46394650460A9A009605F0C3
:104A800015FA1390002800F04E830C9BABEB03014A
:104A90000B9B002BB4BF0A4600220E9200229346C5
:104AA000904623EAE3731293139C5046616805F025
:104AB0007BF90746002800F04081226904F10C01CF
:104AC000023292000C30FCF743F8DDE904010C4699
:104AD00011911EA901911DA902460A902346504634
:104AE000009105F087FD1C90002800F0168101213F
:104AF000504605F081FA8046002800F01E811D9B7B
:104B0000002BC0F20D810E9A129D9E18089A1E9CD1
:104B10009B1A2344614A013B9342C4F1360480F25C
:104B2000AE80D21A1F2A4FF00109A4EB020400F351
:104B30001981002309FA02F90C93089B2544344497
:104B4000A6421D443346A8BF2346AB42A8BF2B460E
:104B5000002B02DDE41AED1AF61A0E9B002B00F36F
:104B6000BC80002C00F3D0800B9B002B00F3DC807A
:104B7000002D00F3ED80002E08DD41463246504600
:104B800005F072FB8046002800F0D7803A46504678
:104B90001C9905F0FFFB8346002800F0CE8000261C
:104BA000C3684146C6600F9305F0D4FBB042C0F223
:104BB000678400F0CE834146584605F07DFD002213
:104BC0004FF0804304460D46FCF7B4FA00286DD040
:104BD0000F9B002B00F0DD8000223546059B304CFA
:104BE00010932F4BCDE90C232E4E109A2E4B02EA38
:104BF0000609994500F0F880089B93B1B9F1D46F8C
:104C00000FD821A3D3E9002328462146FCF792FAC6
:104C1000002840F084810D9B03F1D663A3EB0903C8
:104C20000D93119E0A983146DDE90C23CDE904234A
:104C300005F056FC02460B46DDE90401FBF7FEFFDA
:104C400033460A9AFBF78AFA0E46CDE90401089B1F
:104C500023B9144B3340994500F0FF8050461C990E
:104C600005F0C8F83946504605F0C4F841465046AC
:104C700005F0C0F85946504605F0BCF814E700238B
:104C80004FF001090C9358E70000C0FFFFFFDF4120
:104C900078C60008FCC3000828CB000802FCFFFF10
:104CA0000000F03F0000F07F0000E07F2046294632
:104CB0000022AB4BFBF7C2FF0F9B024605460C469A
:104CC000002B62D101F1004314901593059B1093C2
:104CD000DDE91423CDE90C2386E741461A46504608
:104CE00005F066FA804640B301461C9A504605F02E
:104CF000B1F910B30F901C99504605F07BF80F9B4B
:104D0000002C1C937FF730AF224650461C9905F0CB
:104D1000ABFA1C9000287FF427AF5E460B970FE09C
:104D2000129A0E9ED51AF1E639465046129A05F0AF
:104D30003FFA074600287FF41BAF5E460B971C988E
:104D400022234FF0000BDFF81C92CAF80030B3E0CA
:104D500039462A46504605F087FA074600287FF470
:104D60000AAFEAE7804AD31A09FA03F30C93E4E6A0
:104D70000023CDF86C800C9389E54FF0010E08F10B
:104D800002031B9398F80240DEE50B46CDE914239D
:104D90009CE7DDE90412002940F0B080C2F3130360
:104DA0001092002B40F0B0800022204629466F4B25
:104DB000FCF7B6F9002840F0AE8220462946684B41
:104DC0000022FBF73BFF05460C4601F1004318901B
:104DD0001993DDE91823CDE90C2305E7652C4FF085
:104DE000010C3FF4A2AD1DE5A2F154730593DDE97A
:104DF0000423DDE90C01CDE9040110461946CDE993
:104E00000C2305F06DFB02460B46DDE90401FBF7C0
:104E100015FFDDE90C23FBF7A1F9554A0B46CDE957
:104E200004013140914276D9119A524B9A4202D1F3
:104E30000A9B013381D04FF0FF334E4ACDE9043253
:104E40000CE74FF0000E9AE7652C00F0F780452C38
:104E500000F0F4804FF0010CB2E528462146FCF743
:104E6000FDF9FBF703FB0B46024621462846FBF7FC
:104E700073F90F9C049DC6F3130644EA050C5CEA23
:104E8000060304460D4600F0BE8031A3D3E900239B
:104E9000FCF746F948B930A3D3E900232046294658
:104EA000FCF75CF900283FF4D9AEDDE904345E4636
:104EB000A1469B461C980B970146504604F09AFF6A
:104EC00050460B9904F096FF4146504604F092FF7D
:104ED0005046139904F08EFF3146504604F08AFF85
:104EE00095E5012309937A1C1B927B78002B3FF4F4
:104EF000A0AC17462DE400230993F4E7DDE9041282
:104F0000012900F06E81109200221B4B0025CDE993
:104F10000C23164C68E603F15476059697E6214675
:104F20002846FCF763F9012838BF0120FBF752FA45
:104F30000F9B024605460C46002B40F0628101F1B2
:104F4000004316901793DDE91623CDE90C2362E6A2
:104F50009535A094FFFFDF3F35E5AF350000E03F1A
:104F60000000E03F0000F07FE2FBFFFF0000F03FA9
:104F7000FFFF9F7CFFFFEF7F0000F0BFB3F59A7F3C
:104F800000F3D180102B4FEA231440F3C082DDE9F7
:104F900004010023AC4A99469046089214F0010F90
:104FA00009F101094FEA640404D0D8E90023FBF7B2
:104FB00045FE0123012C08F10808EFD10BB1CDE922
:104FC0000401089B03EBC909059BD9E90001A3F182
:104FD00054730593DDE90423FBF730FE9B4B9C4A99
:104FE0000B409342CDE9040100F29D80A2F58012AE
:104FF000934240F222824FF0FF339649CDE90431CB
:105000000023089336E58EA3D3E90023FCF788F844
:1050100000283FF423AE48E71633FFF611ADDDE973
:1050200004010C9BABEB030A8B4B03EBCA03D3E9E4
:105030000023FBF72DFF83468946E8E400234FF069
:10504000010C9B460A93FFF7F1BB6E2C3FF4CAACF0
:10505000FFF7EFBB3FF40CAD644214F00F020AD02F
:10506000DDE904017C4B03EBC203D3E90023FBF72A
:105070000FFFCDE9040124113FF4FAAC1F2C35DCFD
:10508000DDE9040114F0100318BF6A23089300231C
:10509000DFF8C881E20704D5D8E90023FBF7CEFD8D
:1050A0000123641008F10808F4D10BB1CDE9040123
:1050B000089B93B1DDE90401C1F30A52C2F16B030D
:1050C000002B0ADD1F2B40F34C820020342B049070
:1050D00040F352824FF05C7305930022DDE9040136
:1050E0000023FCF713F800283FF4C4AC22234FF050
:1050F000000BCAF80030D94689E41E9B04931D9B1F
:1051000003F233421F9B23F4801343EA02530593B7
:10511000200742BF059B43F000430593DDE90434BB
:105120009B46A14673E422234FF0000BDFF81C914D
:10513000CAF800306BE4099B029401931CAB009306
:105140005046474A1DAB1BA903F014FE10F007059B
:1051500004463FF459AC062D40F097804FF0000B09
:10516000079BD9460137002B3FF46BAB1F60FFF75D
:1051700068BB6B1C01281A461B9C834415D028442D
:1051800000F1FF3C03E046009C450DD001332A4668
:10519000082A1D4606EB8600F5D9102BDCBF09EB6B
:1051A00089094FEA4909EFE70232082D5EDC15460E
:1051B000FFF71EBB5A463846089905F0F7FD002850
:1051C00000F08D8000231D4699461E460A93FFF786
:1051D00058BB44F61F639942A8BF19460C91FFF7CC
:1051E000E5BBDDE904341094002C7FF48DAE5E46FF
:1051F0000B9722234FF0000B1C98D946CAF80030B9
:105200005AE60B46CDE916239DE616491BA804F085
:1052100093F800283FF40DAB1B9B1349013B1BA8DF
:105220001B9304F089F810B91B9B01331B934FF0BB
:10523000000BDFF81890FFF7EABB00BFAFF3008068
:105240009535A094FFFFCF3F00CB00080000F07F12
:105250000000A07CFFFFEF7F28CB0008A8C6000855
:105260007CC600086CC6000870C60008102AD8BFAB
:1052700009EB890915464FF00000D8BF01EB490939
:10528000FFF7BBBA0020FFF7A5BA1C9A3AB1352147
:105290001EA805F041FA50461C9904F0ABFD013DF3
:1052A000042D3FF635AF01A353F825F0FB5000085D
:1052B000D5520008CF520008C1520008FB50000828
:1052C0004FF0FF336FF00045CDE9043520E7AF4BD9
:1052D00005931DE71E9B04931F9B059318E71B9BDB
:1052E00006461A465B441B93814612F80B40FFF7B3
:1052F00066BA0B98A649DDE9042301EBC001D1E9A8
:105300000001FBF79BFC83468946FFF780BB834681
:105310000A95FFF775BA00229E4B0F9DCDE9182321
:105320009D4C56E59A4CC5F10F0504EBC501DDE92E
:105330000423D1E90001FBF781FC0B9B5D1B04EB0F
:10534000C504D4E90023FBF779FC83468946FFF7BF
:105350005EBB0F9B5E46CC460B97DDF828B00C9FDA
:10536000DDF84490002B6FD0DDE904458B4BC5F38D
:10537000130199422A463CD0002F00F0AB80DDE9B2
:1053800004231F421C4621D00F9B58464946002B40
:1053900000F0C28005F0A4F8089D02460B467DB1DE
:1053A000C4F30A54C4F16B04002C09DD240504F194
:1053B0007F53002203F54013FBF740FC02460B46E7
:1053C00058464946FAF7CAFE83468946089B73B198
:1053D00058464946724B0022FBF730FC03460B430C
:1053E00008BF22238346894608BFCAF800301C98AC
:1053F00062E5089B0499002B00F0BB80634B2B40B7
:10540000B3F1D46F00F2B5804FF0FF301B0DC3F144
:105410006B0300FA03F39942AED1624B9A4200F05B
:10542000E0805A4B134003F5801305930023049347
:10543000DDE904349B46A146C8E701F154730593A6
:1054400000230893FFF716BBDDE90412C2F3130330
:105450000B43144690D1089B002B40F0B7804B4B78
:105460002340A3F580136FEA13536FEA03530593A8
:105470004FF0FF330493DDE904349B46A146A5E7D2
:105480000F9BDDE904120B4358465E46DDF844905D
:10549000DDF828B00B9799D1C2F313031446002B03
:1054A00094D122F000431B0D1B05B3F1D66F8DD9AB
:1054B000436913B90369012B88DD31460122504647
:1054C00004F0D2FE4146064604F044FF00287FF770
:1054D0007DAFC0E7DDE904341CEA030F3FF476AF8B
:1054E00052E731491BA81EAA03F040FF05287FF4AC
:1054F00085AA1F9B43F0FF4343F4E00305931E9BE3
:105500000493DDE904349B46A146FFF780BA274B9C
:105510004FF00009089354E504F0E2FF089D0246AD
:105520000B46002D44D0C4F30A54C4F16B04002C84
:1055300009DD240504F17F530F9A03F54013FBF7AF
:105540007DFB02460B4658464946FAF705FE002207
:10555000002383468946FBF7D9FD00283FF438AF86
:1055600047E64FF0FF3202FA03F3049A1A4004921E
:10557000B3E54FF0FF334EE74FF0FF33C2F14B027C
:1055800003FA02F202EA01030593A6E50000F07FA8
:1055900028CB00080000E0BF0000E03FFFFF0F0045
:1055A00000005039FFFFEF7F90C6000800CB0008D5
:1055B00058464946FAF7D0FD002200238346894623
:1055C000FBF7A4FD00283FF412AF12E6074B23407F
:1055D000B3F1D66F3FF745AFB3F15C7F3FF7F8AE5D
:1055E00007E601317FF41DAFFFF7A9BB0000F07F94
:1055F00084460A460249034B08686146FFF75CB8D7
:105600000C000020400400202DE9F04F81468E461A
:10561000444D70461EF801CB15F80C4014F00804F8
:10562000F7D1BCF12D0FE34653D06FF00048BCF129
:105630002B0F04BF9EF800B000F1020E1BB1102B1F
:105640004FD01F4604E0BBF1300F55D00A231F4650
:105650000025B8FBF7F6284607FB168A07E08642C6
:1056600015D329D0012507FB00C01EF801BBABF103
:10567000300CBCF1090F06D9ABF1410CBCF1190F8C
:1056800008D8ABF1370C63450DDD002DE7DA4FF09C
:10569000FF35EAE7ABF1610CBCF1190F03D8ABF1B0
:1056A000570C6345F1DC002D0BDB04B140420AB11D
:1056B00095BB1160BDE8F08FE245D3DA4FF0FF35BE
:1056C000D3E72223C9F800301AB340460EF1FF3168
:1056D000EFE79EF800B04FF00048012400F1020E01
:1056E000ACE7BBF1300FACD19EF8000000F0DF005A
:1056F000582807D01F46ABE79EF8003003F0DF03C1
:10570000582B0BD110279EF801B03B460EF1020E2C
:105710009EE74046BDE8F08F8046D6E708231F4647
:1057200096E700BF35C70008012A10B50AD0242A21
:1057300008D8074C13460A4601462068BDE81040C9
:10574000FFF762BFFEF794FC16230360002010BD34
:105750000C0000202DE9F04FD5B01C469146079172
:105760000546099003F0DEFE02680E94104617927B
:10577000FEF764FD16901DB1AB6B002B00F01D828F
:10578000079A536EDD0740F12D81B2F90C2091B2DA
:105790008F0409D4079B42F400529A8191B21A46B1
:1057A0005B6E23F4005353660E0740F1C080079BE5
:1057B0001B69002B00F0BB8001F01A030A2B00F0DC
:1057C000C48000242BAB224698464D46CDE929449F
:1057D0002893129400230024CDE914342B78CDE9CA
:1057E0001922CDE91B2218920B92002B00F08F8119
:1057F000AA4604E01AF8013F002B00F0BB80252BDD
:10580000F8D1BAEB050640F0B9809AF80030002BC9
:1058100000F07D8100234FF0FF324FF02B09202450
:105820001F469AF8016008920AF1010A8DF8833048
:105830000A930AF1010AA6F120035A2B00F2E18033
:10584000DFE813F00503DF00DF000003DF00DF0007
:10585000DF00DE02DF00DF006A006E02DF005502BB
:105860007802DF0073025B005B005B005B005B00A3
:105870005B005B005B005B00DF00DF00DF00DF0040
:10588000DF00DF00DF006C01DF00EA01C4016C0112
:105890006C016C01DF00DF00DF00DF00D002DF0001
:1058A000DF002302DF00DF00DF00F801DF009202EB
:1058B000DF00DF008707DF00DF00DF00DF00DF0041
:1058C000DF00DF00DF006C01DF00EA01C6016C01D0
:1058D0006C016C01B602C601BF01DF00C302DF002C
:1058E0005A022502A402BF01DF00F80172008407FA
:1058F000DF00DF006507DF0072000022A6F1300341
:105900001AF8016B02EB820203EB4202A6F13003AC
:10591000092BF5D90A928EE70E9B53F8042B002A27
:105920000A920E93C0F2E0819AF8006081E7079D29
:105930000998294601F0FCFC002841F04D83A98913
:1059400001F01A030A2B7FF43CAF079AB2F90E302C
:10595000002BFFF636AF536ED80702D4890541F10C
:10596000488123464A460799099855B0BDE8F04F4B
:1059700001F09CBCBAEB050600F0C9802A9BC8E97F
:10598000005633442A93299B0133072B299305DCC6
:1059900008F108080B9B33440B9336E707990998E5
:1059A00028AA05F0C3FA80B90DF1AC08F2E707990F
:1059B000099828AA05F0BAFA002800F099800D9BF2
:1059C0001BB11946099802F0E7FE079A536ED907F2
:1059D00040F1E88093895B0601F10A830B9855B08A
:1059E000BDE8F08F079BB3F90C20900591B23FF50D
:1059F000CFAE1D46986D03F09DFDB5F90C2091B218
:105A0000C6E6002E00F08380012300228DF8EC60B2
:105A100006933BAD8DF883200C930D9208920F9264
:105A20001392109217F0020302D0069902310691E8
:105A300017F0840B07D10A990698A1EB0009B9F178
:105A4000000F00F390832A9C82B10122C8F8042041
:105A5000299A013401320DF18301072A2A942992EF
:105A6000C8F8001000F3D88308F108087BB10223BE
:105A7000C8F80430299B0234013321AA072B2A9449
:105A80002993C8F8002000F3D58308F10808BBF17A
:105A9000800F00F08882089B0C9AA3EB020BBBF1ED
:105AA000000F00F3CB82FB0500F11F820C9BC8F8AE
:105AB00000501C44C8F80430299B2A940133072B5A
:105AC000299300F3448308F10808780705D50A9B59
:105AD000069A9D1A002D00F3B983DDE90A23069981
