:020000040800F2
:1000000000500020014E0008592D00085B2D00080B
:100010005D2D00085F2D0008612D00080000000024
:10002000000000000000000000000000632D000838
:10003000652D000800000000672D0008692D0008EC
:10004000494E0008494E0008494E0008494E000834
:10005000494E0008494E0008494E0008494E000824
:10006000494E0008494E0008494E0008494E000814
:10007000494E0008494E0008494E0008494E000804
:10008000494E0008494E0008494E0008494E0008F4
:10009000494E0008494E0008494E0008494E0008E4
:1000A000494E0008494E0008494E0008494E0008D4
:1000B000494E0008712D0008494E0008494E0008BD
:1000C000494E0008494E0008494E0008494E0008B4
:1000D000494E0008494E0008812D0008494E00088D
:1000E000494E0008494E0008494E00080000000033
:1000F0000000000000000000000000000000000000
:0C01000000000000000000005FF808F1A3
:1001100010B5054C237833B9044B13B10448AFF341
:1001200000800123237010BDBC09002000000000E6
:100130001CD1000808B5034B1BB103490348AFF3BA
:10014000008008BD00000000C00900201CD100088C
:1001500081F0004102E000BF83F0004330B54FEA78
:1001600041044FEA430594EA050F08BF90EA020FE5
:100170001FBF54EA000C55EA020C7FEA645C7FEA78
:10018000655C00F0E2804FEA5454D4EB5555B8BF9B
:100190006D420CDD2C4480EA020281EA030382EA0C
:1001A000000083EA010180EA020281EA0303362D9E
:1001B00088BF30BD11F0004F4FEA01314FF4801C71
:1001C0004CEA113102D0404261EB410113F0004F83
:1001D0004FEA03334CEA133302D0524263EB43033A
:1001E00094EA050F00F0A780A4F10104D5F1200ED8
:1001F0000DDB02FA0EFC22FA05F2801841F1000133
:1002000003FA0EF2801843FA05F359410EE0A5F106
:1002100020050EF1200E012A03FA0EFC28BF4CF037
:10022000020C43FA05F3C01851EBE37101F00045ED
:1002300007D54FF0000EDCF1000C7EEB00006EEBFA
:100240000101B1F5801F1BD3B1F5001F0CD3490884
:100250005FEA30004FEA3C0C04F101044FEA4452DB
:1002600012F5800F80F09A80BCF1004F08BF5FEA62
:10027000500C50F1000041EB045141EA050130BD42
:100280005FEA4C0C404141EB0101013C28BFB1F554
:10029000801FE9D291F0000F04BF01460020B1FA9F
:1002A00081F308BF2033A3F10B03B3F120020CDA72
:1002B0000C3208DD02F1140CC2F10C0201FA0CF050
:1002C00021FA02F10CE002F11402D8BFC2F1200CB5
:1002D00001FA02F120FA0CFCDCBF41EA0C0190406B
:1002E000E41AA2BF01EB0451294330BD6FEA0404B4
:1002F0001F3C1CDA0C340EDC04F11404C4F120029F
:1003000020FA04F001FA02F340EA030021FA04F3B0
:1003100045EA030130BDC4F10C04C4F1200220FA07
:1003200002F001FA04F340EA0300294630BD21FA45
:1003300004F0294630BD94F0000F83F4801306BF0B
:1003400081F480110134013D4EE77FEA645C18BFFF
:100350007FEA655C29D094EA050F08BF90EA020F96
:1003600005D054EA000C04BF1946104630BD91EA8E
:10037000030F1EBF0021002030BD5FEA545C05D191
:100380004000494128BF41F0004130BD14F58004D0
:100390003CBF01F5801130BD01F0004545F0FE4144
:1003A00041F470014FF0000030BD7FEA645C1ABF79
:1003B000194610467FEA655C1CBF0B46024650EAB0
:1003C000013406BF52EA033591EA030F41F40021DC
:1003D00030BD00BF90F0000F04BF0021704730B562
:1003E0004FF4806404F132044FF000054FF0000137
:1003F00050E700BF90F0000F04BF0021704730B5F8
:100400004FF4806404F1320410F0004548BF4042CC
:100410004FF000013EE700BF42004FEAE2014FEA21
:1004200031014FEA02701FBF12F07F4393F07F4FFC
:1004300081F06051704732F07F4208BF704793F0FF
:100440007F4F04BF41F40021704730B54FF4607412
:1004500001F0004521F000411CE700BF50EA010215
:1004600008BF704730B54FF000050AE050EA0102BE
:1004700008BF704730B511F0004502D5404261EB2E
:1004800041014FF4806404F132045FEA915C3FF46F
:10049000D8AE4FF003025FEADC0C18BF03325FEA0C
:1004A000DC0C18BF033202EBDC02C2F1200300FABD
:1004B00003FC20FA02F001FA03FE40EA0E0021FAE2
:1004C00002F11444BDE600BF4FEA4102B2F1E0433D
:1004D00024BFB3F5001CDCF1FE5C0DD901F0004C2B
:1004E0004FEAC0024CEA5070B2F1004F40EB83007B
:1004F00008BF20F00100704711F0804F21D113F1A7
:100500003872BCBF01F00040704741F480114FEADF
:100510005252C2F11802C2F1200C10FA0CF320FA68
:1005200002F018BF40F001004FEAC1234FEAD32385
:1005300003FA0CFC40EA0C0023FA02F34FEA4303EF
:10054000CCE77FEA625307D150EA01331EBF4FF078
:10055000FE4040F44000704701F0004040F0FE4093
:1005600040F40000704700BF80F0004002E000BF90
:1005700081F0004142001FBF5FEA410392EA030F8E
:100580007FEA226C7FEA236C6AD04FEA1262D2EBD8
:100590001363C1BFD218414048404140B8BF5B42DD
:1005A000192B88BF704710F0004F40F4000020F076
:1005B0007F4018BF404211F0004F41F4000121F08C
:1005C0007F4118BF494292EA030F3FD0A2F10102D6
:1005D00041FA03FC10EB0C00C3F1200301FA03F114
:1005E00000F0004302D5494260EB4000B0F5000F37
:1005F00013D3B0F1807F06D340084FEA310102F1F6
:100600000102FE2A51D2B1F1004F40EBC25008BFA7
:1006100020F0010040EA03007047490040EB000071
:10062000013A28BFB0F5000FEDD2B0FA80FCACF172
:10063000080CB2EB0C0200FA0CF0AABF00EBC2509F
:1006400052421843BCBFD0401843704792F0000F8D
:1006500081F4000106BF80F400000132013BB5E7E0
:100660004FEA41037FEA226C18BF7FEA236C21D056
:1006700092EA030F04D092F0000F08BF08467047BB
:1006800090EA010F1CBF0020704712F07F4F04D189
:10069000400028BF40F00040704712F100723CBF9C
:1006A00000F50000704700F0004343F0FE4040F4C6
:1006B000000070477FEA226216BF08467FEA236384
:1006C0000146420206BF5FEA412390EA010F40F46F
:1006D000800070474FF0000304E000BF10F00043BB
:1006E00048BF40425FEA000C08BF704743F09643A2
:1006F00001464FF000001CE050EA010208BF7047BD
:100700004FF000030AE000BF50EA010208BF704743
:1007100011F0004302D5404261EB41015FEA010C58
:1007200002BF84460146002043F0B64308BFA3F150
:100730008053A3F50003BCFA8CF2083AA3EBC25332
:1007400010DB01FA02FC634400FA02FCC2F1200251
:10075000BCF1004F20FA02F243EB020008BF20F088
:100760000100704702F1200201FA02FCC2F12002EE
:1007700050EA4C0021FA02F243EB020008BF20EAE3
:10078000DC7070474FF0FF0C1CEAD0521EBF1CEA11
:10079000D15392EA0C0F93EA0C0F6FD01A4480EAFF
:1007A000010C400218BF5FEA41211ED04FF00063E8
:1007B00043EA501043EA5111A0FB01310CF0004014
:1007C000B1F5000F3EBF490041EAD3715B0040EA3A
:1007D000010062F17F02FD2A1DD8B3F1004F40EB0A
:1007E000C25008BF20F00100704790F0000F0CF0DD
:1007F000004C08BF49024CEA502040EA51207F3AA1
:10080000C2BFD2F1FF0340EAC250704740F400007B
:100810004FF00003013A5DDC12F1190FDCBF00F06C
:1008200000407047C2F10002410021FA02F1C2F11A
:10083000200200FA02FC5FEA310040F1000053EAB6
:100840004C0308BF20EADC70704792F0000F00F004
:10085000004C02BF400010F4000F013AF9D040EA0A
:100860000C0093F0000F01F0004C02BF490011F49E
:10087000000F013BF9D041EA0C018FE70CEAD1539C
:1008800092EA0C0F18BF93EA0C0F0AD030F0004C1C
:1008900018BF31F0004CD8D180EA010000F00040D0
:1008A000704790F0000F17BF90F0004F084691F08E
:1008B000000F91F0004F14D092EA0C0F01D14202C8
:1008C0000FD193EA0C0F03D14B0218BF084608D191
:1008D00080EA010000F0004040F0FE4040F40000DB
:1008E000704740F0FE4040F4400070474FF0FF0C6E
:1008F0001CEAD0521EBF1CEAD15392EA0C0F93EAB5
:100900000C0F69D0A2EB030280EA010C49024FEA06
:10091000402037D04FF0805343EA111143EA1013BF
:100920000CF000408B4238BF5B0042F17D024FF477
:10093000000C8B4224BF5B1A40EA0C00B3EB510F52
:1009400024BFA3EB510340EA5C00B3EB910F24BF3B
:10095000A3EB910340EA9C00B3EBD10F24BFA3EBC0
:10096000D10340EADC001B0118BF5FEA1C1CE0D188
:10097000FD2A3FF650AF8B4240EBC25008BF20F03B
:10098000010070470CF0004C4CEA50207F32C2BF8F
:10099000D2F1FF0340EAC250704740F400004FF02C
:1009A0000003013A37E792F0000F00F0004C02BF5D
:1009B000400010F4000F013AF9D040EA0C0093F027
:1009C000000F01F0004C02BF490011F4000F013B81
:1009D000F9D041EA0C0195E70CEAD15392EA0C0FE9
:1009E00008D142027FF47DAF93EA0C0F7FF470AF21
:1009F000084676E793EA0C0F04D14B023FF44CAF64
:100A000008466EE730F0004C18BF31F0004CCAD1F8
:100A100030F000427FF45CAF31F000437FF43CAF34
:100A20005FE700BF4FF0FF3C06E000BF4FF0010C56
:100A300002E000BF4FF0010C4DF804CD4FEA400238
:100A40004FEA41037FEA226C18BF7FEA236C11D082
:100A500001B052EA530C18BF90EA010F58BFB2EB35
:100A6000030088BFC81738BF6FEAE17018BF40F0B5
:100A7000010070477FEA226C02D15FEA402C05D169
:100A80007FEA236CE4D15FEA412CE1D05DF8040BEE
:100A9000704700BF844608466146FFE70FB5FFF781
:100AA000C9FF002848BF10F1000F0FBD4DF808ED39
:100AB000FFF7F4FF0CBF012000205DF808FB00BF2A
:100AC0004DF808EDFFF7EAFF34BF012000205DF884
:100AD00008FB00BF4DF808EDFFF7E0FF94BF0120D1
:100AE00000205DF808FB00BF4DF808EDFFF7D2FFCE
:100AF00094BF012000205DF808FB00BF4DF808ED11
:100B0000FFF7C8FF34BF012000205DF808FB00BFDD
:100B100042000ED2B2F1FE4F0BD34FF09E03B3EB67
:100B2000126209D44FEA002343F0004323FA02F093
:100B300070474FF00000704712F1610F01D142027F
:100B400002D14FF0FF3070474FF00000704700BFF8
:100B5000844641EA000313F0030349D1403A23D30A
:100B60000B6803604B6843608B688360CB68C3602D
:100B70000B6903614B6943618B698361CB69C36115
:100B80000B6A03624B6A43628B6A8362CB6AC362FD
:100B90000B6B03634B6B43638B6B8363CB6BC363E5
:100BA00040304031403ADBD230320BD30B68036027
:100BB0004B6843608B688360CB68C3601030103132
:100BC000103AF3D20C3205D351F8043B40F8043B01
:100BD000043AF9D2043208D0D2071CBF11F8013B05
:100BE00000F8013B01D30B8803806046704700BFCB
:100BF000082A13D38B07B1D010F00303AED0C3F192
:100C00000403D21ADB071CBF11F8013B00F8013BBB
:100C1000A4D331F8023B20F8023B9FE7043AD9D332
:100C2000013A11F8013B00F8013BF9D20B7803704F
:100C30004B7843708B7883706046704770B54FF087
:100C4000FF0C4CF4E06C1CEA11541DBF1CEA135558
:100C500094EA0C0F95EA0C0F00F0DEF82C4481EAC0
:100C6000030621EA4C5123EA4C5350EA013518BFE0
:100C700052EA033541F4801143F4801338D0A0FBCD
:100C800002CE4FF00005E1FB02E506F00042E0FB7A
:100C900003E54FF00006E1FB03569CF0000F18BF80
:100CA0004EF0010EA4F1FF04B6F5007F64F5407428
:100CB00004D25FEA4E0E6D4146EB060642EAC621BB
:100CC00041EA55514FEAC52040EA5E504FEACE2E28
:100CD000B4F1FD0C88BFBCF5E06F1ED8BEF1004F2B
:100CE00008BF5FEA500E50F1000041EB045170BDA7
:100CF00006F0004646EA010140EA020081EA0301EB
:100D0000B4EB5C04C2BFD4EB0C0541EA045170BDE6
:100D100041F480114FF0000E013C00F3AB8014F160
:100D2000360FDEBF002001F0004170BDC4F10004A9
:100D3000203C35DA0C341BDC04F11404C4F120052A
:100D400000FA05F320FA04F001FA05F240EA020085
:100D500001F0004221F0004110EBD37021FA04F6BB
:100D600042EB06015EEA430E08BF20EAD37070BD75
:100D7000C4F10C04C4F1200500FA04F320FA05F0D4
:100D800001FA04F240EA020001F0004110EBD370D6
:100D900041F100015EEA430E08BF20EAD37070BD46
:100DA000C4F1200500FA05F24EEA020E20FA04F31F
:100DB00001FA05F243EA020321FA04F001F00041CE
:100DC00021FA04F220EA020000EBD3705EEA430E3F
:100DD00008BF20EAD37070BD94F0000F0FD101F06E
:100DE0000046400041EB010111F4801F08BF013CA7
:100DF000F7D041EA060195F0000F18BF704703F0E5
:100E00000046520043EB030313F4801F08BF013D6B
:100E1000F7D043EA0603704794EA0C0F0CEA135527
:100E200018BF95EA0C0F0CD050EA410618BF52EAE1
:100E30004306D1D181EA030101F000414FF00000E7
:100E400070BD50EA410606BF1046194652EA4306F5
:100E500019D094EA0C0F02D150EA013613D195EA69
:100E60000C0F05D152EA03361CBF104619460AD1B1
:100E700081EA030101F0004141F0FE4141F47001BB
:100E80004FF0000070BD41F0FE4141F4780170BDAB
:100E900070B54FF0FF0C4CF4E06C1CEA11541DBF10
:100EA0001CEA135594EA0C0F95EA0C0F00F0A7F812
:100EB000A4EB050481EA030E52EA03354FEA01313F
:100EC00000F088804FEA03334FF0805545EA131352
:100ED00043EA12634FEA022245EA111545EA10651A
:100EE0004FEA00260EF000419D4208BF964244F1B1
:100EF000FD0404F5407402D25B084FEA3202B61AD0
:100F000065EB03055B084FEA32024FF480104FF4A3
:100F1000002CB6EB020E75EB030E22BFB61A754617
:100F200040EA0C005B084FEA3202B6EB020E75EBAA
:100F3000030E22BFB61A754640EA5C005B084FEA12
:100F40003202B6EB020E75EB030E22BFB61A7546DF
:100F500040EA9C005B084FEA3202B6EB020E75EBEA
:100F6000030E22BFB61A754640EADC0055EA060EAB
:100F700018D04FEA051545EA16754FEA06164FEAEE
:100F8000C30343EA52734FEAC2025FEA1C1CC0D19A
:100F900011F4801F0BD141EA00014FF000004FF027
:100FA000004CB6E711F4801F04BF01430020B4F1E8
:100FB000FD0C88BFBCF5E06F3FF6AFAEB5EB030CA0
:100FC00004BFB6EB020C5FEA500C50F1000041EB9D
:100FD000045170BD0EF0004E4EEA113114EB5C046A
:100FE000C2BFD4EB0C0541EA045170BD41F480113D
:100FF0004FF0000E013C90E645EA060E8DE60CEA45
:10100000135594EA0C0F08BF95EA0C0F3FF43BAF61
:1010100094EA0C0F0AD150EA01347FF434AF95EA18
:101020000C0F7FF425AF104619462CE795EA0C0FFC
:1010300006D152EA03353FF4FDAE1046194622E7C9
:1010400050EA410618BF52EA43067FF4C5AE50EAA3
:1010500041047FF40DAF52EA43057FF4EBAE12E793
:101060004FF0FF3C06E000BF4FF0010C02E000BF74
:101070004FF0010C4DF804CD4FEA410C7FEA6C5C57
:101080004FEA430C18BF7FEA6C5C1BD001B050EAFA
:10109000410C0CBF52EA430C91EA030F02BF90EAE5
:1010A000020F0020704710F1000F91EA030F58BFA4
:1010B000994208BF90422CBFD8176FEAE37040F006
:1010C000010070474FEA410C7FEA6C5C02D150EAA4
:1010D000013C07D14FEA430C7FEA6C5CD6D152EA5F
:1010E000033CD3D05DF8040B704700BF8446104624
:1010F00062468C461946634600E000BF01B5FFF723
:10110000B7FF002848BF10F1000F01BD4DF808EDF2
:10111000FFF7F4FF0CBF012000205DF808FB00BFC3
:101120004DF808EDFFF7EAFF34BF012000205DF81D
:1011300008FB00BF4DF808EDFFF7E0FF94BF01206A
:1011400000205DF808FB00BF4DF808EDFFF7CEFF6B
:1011500094BF012000205DF808FB00BF4DF808EDAA
:10116000FFF7C4FF34BF012000205DF808FB00BF7B
:101170004FEA410C7FEA6C5C02D150EA013C0AD193
:101180004FEA430C7FEA6C5C02D152EA033C02D185
:101190004FF0000070474FF0010070474FEA4102E6
:1011A00012F5001215D211D56FF47873B3EB6252B9
:1011B00012D94FEAC12343F0004343EA505311F0E0
:1011C000004F23FA02F018BF404270474FF0000072
:1011D000704750EA013005D111F0004008BF6FF0B0
:1011E000004070474FF00000704700BF4A0011D226
:1011F00012F5001211D20DD56FF47873B3EB625271
:101200000ED44FEAC12343F0004343EA505323FA7C
:1012100002F070474FF00000704750EA013002D1F1
:101220004FF0FF3070474FF00000704753B94AB994
:10123000002908BF00281CBF4FF0FF314FF0FF30DE
:1012400000F0AEB9ADF1080C6DE904CE00F03EF847
:10125000DDF804E0DDE9022304B0704738B5054647
:101260000C460022002328462146FFF759FF28B9E3
:1012700028462146BDE8384000F00AB8284604F167
:10128000004100F005F8404261EB410138BD00BF6C
:10129000D0B500220B4B06460F46FFF7CFFCFFF7F9
:1012A000A5FF0446FFF796F80022074BFFF7C6FCA0
:1012B00002460B4630463946FEF74EFFFFF796FFD3
:1012C0002146D0BD0000F03D0000F0412DE9F0477F
:1012D000089E0D4604468846002B4DD18A4294460E
:1012E00068D9B2FA82F252B101FA02F3C2F12001D6
:1012F00020FA01F10CFA02FC41EA030894404FEA9B
:101300001C41B8FBF1F71FFA8CFE01FB178807FBA5
:101310000EF0230C43EA084398420AD91CEB03035E
:1013200007F1FF3580F01E81984240F21B81023F99
:1013300063441B1AB3FBF1F001FB103300FB0EFEFC
:10134000A4B244EA0344A6450AD91CEB040400F104
:10135000FF3380F00981A64540F2068164440238DB
:101360000021A4EB0E0440EA07401EB10023D44044
:10137000C6E90043BDE8F0878B4208D9002E00F093
:10138000EE800021C6E900050846BDE8F087B3FA03
:1013900083F100294AD1AB4202D3824200F2FC80A1
:1013A000841A65EB030301209846002EE2D0C6E9BB
:1013B0000048DFE702B9FFDEB2FA82F2002A40F00D
:1013C0009180A1EB0C0001214FEA1C471FFA8CFE13
:1013D000B0FBF7F307FB1300250C45EA00450EFBB5
:1013E00003F0A84208D91CEB050503F1FF3802D22F
:1013F000A84200F2CE8043462D1AB5FBF7F007FB5A
:1014000010550EFB00FEA4B244EA0544A64508D9D7
:101410001CEB040400F1FF3502D2A64500F2B680B1
:101420002846A4EB0E0440EA03409EE7C1F12007E2
:101430008B4022FA07FC4CEA030C25FA07FA4FEA24
:101440001C49BAFBF9F820FA07F309FB18AA8D40EA
:101450001FFA8CFE1D4300FA01F308FB0EF02C0C62
:1014600044EA0A44A04202FA01F20BD91CEB04043C
:1014700008F1FF3A80F08880A04240F28580A8F110
:1014800002086444241AB4FBF9F009FB104400FB81
:101490000EFEADB245EA0444A64508D91CEB04048F
:1014A00000F1FF356CD2A6456AD90238644440EA9F
:1014B0000840A0FB0295A4EB0E04AC42C846AE4621
:1014C00056D353D0002E69D0B3EB080264EB0E0460
:1014D00022FA01F304FA07F71F43CC40C6E900746F
:1014E000002147E70CFA02FCC2F1200125FA01F3C2
:1014F0004FEA1C4720FA01F195400D43B3FBF7F189
:1015000007FB11331FFA8CFE280C40EA034001FB55
:101510000EF3834204FA02F408D91CEB000001F137
:10152000FF382FD283422DD902396044C01AB0FB54
:10153000F7F307FB1300ADB245EA004503FB0EF0DD
:10154000A84208D91CEB050503F1FF3816D2A842C2
:1015500014D9023B6544281A43EA014138E7314671
:10156000304607E72F46E4E61846F9E64B45A9D290
:10157000B9EB020865EB0C0E0138A3E74346EAE736
:10158000284694E74146D1E7D0467BE764440238D9
:1015900047E7023B65442FE7084606E73146E9E6A0
:1015A000704700BF2DE9F04188B0002404940594F1
:1015B00006940794244B9A6942F004029A619A694E
:1015C00002F004020192019A9A6942F008029A61BB
:1015D0009A6902F008020292029A9A6942F0100295
:1015E0009A619B6903F010030393039BDFF85C800F
:1015F00022464FF4C061404602F057F8144E22468E
:101600000121304602F051F84FF4C06304930125E4
:10161000059506940227079704A9404601F02CFF80
:10162000049505950694079704A9304601F024FF18
:101630004FF4604304930594069504A9054801F00E
:101640001BFF08B0BDE8F081001002400008014017
:10165000000C01400010014010B514464FF47A739D
:1016600092B2024803F069F9204610BD900C0020A8
:1016700008B50268154B9A4200D008BD144A136899
:1016800001331360134B1A780A2A0ED0124B1B78C1
:10169000DBB23E2B13D810490B78DBB20F48C25493
:1016A0000B780133DBB20B7009E00B4A1378DBB225
:1016B00000210A48C1540A4B012018701170012200
:1016C0000449084803F089FBD7E700BF0044004005
:1016D000680B0020A40A0020640B0020240B0020CB
:1016E000000A0020900C0020F0B58DB0A74A1368C6
:1016F00001331360A64C2146A64803F02BFCA649F3
:10170000204603F0B5FEC8B10E3003F09FFBFEF794
:10171000DBFE0246A14B18681A601E68FEF77CFECD
:1017200004460D463046FEF777FECDE9000122461D
:101730002B469B4803F00EFC0DB0F0BD9949944830
:1017400003F096FEC0B10E3003F080FBFEF7BCFE46
:101750000246924B58685A605E68FEF75DFE04468A
:101760000D463046FEF758FECDE9000122462B46D5
:101770008D4803F0EFFBDFE78C49854803F078FEE6
:10178000C0B10E3003F062FBFEF79EFE0246834BB3
:1017900098689A609E68FEF73FFE04460D46304604
:1017A000FEF73AFECDE9000122462B46804803F0C1
:1017B000D1FBC1E77F49764803F05AFEC0B10B3038
:1017C00003F044FBFEF780FE02467B4B18681A606C
:1017D0001E68FEF721FE04460D463046FEF71CFE4D
:1017E000CDE9000122462B46744803F0B3FBA3E782
:1017F0007349674803F03CFEC0B10B3003F026FB91
:10180000FEF762FE02466C4B58685A605E68FEF74F
:1018100003FE04460D463046FEF7FEFDCDE900010D
:1018200022462B46674803F095FB85E766495848F2
:1018300003F01EFEC0B10B3003F008FBFEF744FEC0
:1018400002465D4B98689A609E68FEF7E5FD044687
:101850000D463046FEF7E0FDCDE9000122462B465D
:101860005A4803F077FB67E75949494803F000FEFF
:10187000C0B1073003F0EAFAFEF726FE0246554BE8
:1018800018681A601E68FEF7C7FD04460D4630460C
:10189000FEF7C2FDCDE9000122462B464E4803F07B
:1018A00059FB49E74D493A4803F0E2FDC0B1073022
:1018B00003F0CCFAFEF708FE0246464B58685A6021
:1018C0005E68FEF7A9FD04460D463046FEF7A4FD0E
:1018D000CDE9000122462B46414803F03BFB2BE7B4
:1018E00040492B4803F0C4FDC0B1073003F0AEFA05
:1018F000FEF7EAFD0246374B98689A609E68FEF74D
:101900008BFD04460D463046FEF786FDCDE900010D
:1019100022462B46344803F01DFB0DE733491C4893
:1019200003F0A6FDA0B1063003F090FAFEF7CCFD5F
:101930002F4B1860012283F83020002283F83120D9
:10194000FEF76AFD02460B462A4803F003FBF3E666
:1019500029490F4803F08CFD002851D0093003F0CD
:1019600075FAFEF7B1FD224B5860012283F8302052
:1019700083F8312000229A610022DA60FEF74CFDE4
:1019800002460B461D4803F0E5FAD5E6FC090020A7
:10199000240B002090D100089CD10008080A0020E8
:1019A000ACD10008D0D10008E0D1000804D2000872
:1019B00014D2000838D20008680A002044D2000877
:1019C0006CD2000878D20008A0D20008ACD200087F
:1019D0003CD20008DC0A0020D4D2000870D20008F3
:1019E000F8D20008A4D200081CD3000840D3000895
:1019F000A80A002048D300086CD3000878D3000858
:101A00008F49904803F034FD014600283AD01F2248
:101A1000083104A803F09CFB00238DF82F302C2103
:101A200004A803F001FB044600283FF485AE00261D
:101A300004F8016B04A803F009FAFEF745FD05461A
:101A4000204603F003FAFEF73FFD04467E4B5D603F
:101A50001860012283F83020022283F831209E6131
:101A60000022DA602846FEF7D7FC06460F462046DD
:101A7000FEF7D2FCCDE9000132463B46734803F045
:101A800069FA59E672496F4803F0F2FC88B16E4B6F
:101A9000012283F83020032283F83120002199614C
:101AA0000022DA606B4B99609A616B4803F0B4FADC
:101AB00042E66A49634803F0DBFC88B1043003F076
:101AC000C9F90028D4BF002001205F4A82F82C0009
:101AD00020B16349634803F03DFA2DE66249F9E716
:101AE0006249584803F0C4FC68B1073003F0B2F90A
:101AF000554A82F82F0020B15D495E4803F02AFA6A
:101B00001AE65D49F9E75D494E4803F0B1FC98B12A
:101B10000D3003F09FF90028D4BF002301234A4A67
:101B200082F8303092F8303023B15549554803F0EF
:101B300011FA01E65449F9E75449424803F098FC88
:101B4000002837D00D3003F085F903283FF6F4ADB7
:101B5000C3B23D4A82F8313092F831304BB113466E
:101B600000229A610022DA6093F83130DBB2032B55
:101B700011D0354B93F83130ABB1334B93F8313052
:101B8000DBB2012B14D0304B93F83130DBB2022B97
:101B900007D03F4908E02F4B00229A6000229A614B
:101BA000E7E73C4900E03C493C4803F0D3F9C3E592
:101BB0003B49F9E73B49234803F05AFCD0B10B30CD
:101BC00003F048F902283FF6B7ADC4B21E4B83F8C4
:101BD0002D40354A52F824201A60002283F8312023
:101BE0001868FEF719FC02460B4621462F4803F001
:101BF000B1F9A1E52E49134803F03AFC00285DD065
:101C00000E3003F027F902283FF696ADC4B20E4B12
:101C100083F82E40274A52F824205A60012283F884
:101C2000312000229A610022DA605868FEF7F4FB46
:101C300002460B462146204803F08CF97CE500BFA4
:101C4000A0D30008240B0020A80A0020ACD3000871
:101C5000D0D300084C0A0020D8D30008FCD30008D9
:101C600074D1000804D400086CD1000814D4000812
:101C700098D900081CD400087CD1000830D4000892
:101C800088D1000840D4000880D1000854D400084E
:101C900064D100085CD1000848D1000864D4000871
:101CA00050D1000878D40008D4D9000884D40008A2
:101CB000A0D40008C8D90008B0D400088E498F48C5
:101CC00003F0D6FB68B30D3003F0C4F804460228D5
:101CD0003FF632ADC2B28A4B83F82D2083F82E2016
:101CE000884951F822101960874951F822205A601A
:101CF000022283F8312000229A610022DA601868FB
:101D00005D68FEF789FB06460F462846FEF784FB12
:101D1000CDE9000132463B4621467C4803F01AF9E2
:101D20000AE57B49754803F0A3FBA0B1794A00237B
:101D3000D3619361784AD3619361784AD3619361A7
:101D40006F4A00219161D360754A91609361754833
:101D500003F062F9F0E47449684803F089FB002855
:101D60003FF4EAAC714803F057F90022704B714818
:101D700003F0F0F85EA3D3E900236F4803F0EAF81C
:101D80005F4B93F83030B3B16C495D4C94F8302020
:101D90006B4803F0DFF894F8313083B194F83130B8
:101DA000DBB2012B00F09D8094F83130DBB2022BC6
:101DB00003D0644904E06449E7E7644900E064490A
:101DC0004F4C94F83120634803F0C4F894F82D5038
:101DD0004C4B53F82500FEF71FFB02460B462946E5
:101DE0005D4803F0B7F894F82E50474B53F82500A0
:101DF000FEF712FB02460B462946584803F0AAF8A4
:101E000094F82C20002A6ED05549564803F0A2F8C9
:101E10003B4B93F82F20002A67D05349534803F0D7
:101E200099F8374BDE689868FEF7F6FA04460D46D7
:101E30003046FEF7F1FACDE9000122462B464C4828
:101E400003F088F8364B9869FEF7E6FA02460B462F
:101E5000484803F07FF82F4B18685E689F68FEF7CC
:101E6000DBFA04460D463846FEF7D6FACDE9020104
:101E70003046FEF7D1FACDE9000122462B463E4816
:101E800003F068F8244B18685E689F68FEF7C4FA90
:101E900004460D463846FEF7BFFACDE9020130464A
:101EA000FEF7BAFACDE9000122462B46334803F08B
:101EB00051F81A4B18685E689F68FEF7ADFA044641
:101EC0000D463846FEF7A8FACDE902013046FEF786
:101ED000A3FACDE9000122462B46294803F03AF83F
:101EE0002AE428496CE728498FE7284996E700BF8C
:101EF000000000C07268813FD0D40008240B00208D
:101F0000A80A0020D4D90008C8D90008E0D40008E5
:101F100008D50008DC0A0020680A0020080A002012
:101F20004C0A002010D5000830D5000838D500082C
:101F300000407F404CD5000860D5000888D10008DB
:101F400078D5000864D1000880D100085CD1000871
:101F500048D1000890D50008A8D50008C4D50008CD
:101F600074D10008E4D5000898D90008F8D5000815
:101F700008D6000830D6000848D600086CD60008FD
:101F800090D6000850D100086CD100087CD1000820
:101F90002DE9F04FA7B0394B18689A681D9259681F
:101FA0001E91DC681F949D6A209535494E692196E3
:101FB000344A57692297D1F800C0CDF88CC04D68DB
:101FC0008E681768D2F80480D2F8089093F83140F0
:101FD000E4B293F82CA02C4BD3F818B0FEF71CFAFF
:101FE000CDE924015846FEF717FACDE91A01CDF8DC
:101FF00064A018944846FEF70FFACDE91601404652
:10200000FEF70AFACDE914013846FEF705FACDE9E4
:1020100012013046FEF700FACDE910012846FEF71E
:10202000FBF9CDE90E012398FEF7F6F9CDE90C0195
:102030002298FEF7F1F9CDE90A012198FEF7ECF9B3
:10204000CDE908012098FEF7E7F9CDE906011F98D0
:10205000FEF7E2F9CDE904011E98FEF7DDF9CDE9BE
:1020600002011D98FEF7D8F9CDE90001DDE924232E
:10207000064802F06FFF27B0BDE8F08FA80A0020E5
:10208000DC0A0020680A00204C0A0020B8D60008AC
:102090002DE9F0418AB0444B0FCB0AAC04E90F00A4
:1020A000424802F0B9FF424C94F83150EDB220683A
:1020B000D4F80880FEF7B0F906460F460AAB03EBEA
:1020C000850555F8105C4046FEF7A6F9CDE90001FC
:1020D00032463B462946374802F03CFF6068E668D6
:1020E000354B9F69D4F82880FEF796F904460D46D3
:1020F0004046FEF791F9CDE904013846FEF78CF928
:10210000CDE902013046FEF787F9CDE9000122460C
:102110002B462A4802F01EFF294B18685E689F680C
:10212000FEF77AF904460D463846FEF775F9CDE913
:1021300002013046FEF770F9CDE9000122462B4638
:10214000204802F007FF204B18685E689F68FEF782
:1021500063F904460D463846FEF75EF9CDE9020103
:102160003046FEF759F9CDE9000122462B461748C3
:1021700002F0F0FE164B18685E689F68FEF74CF997
:1021800004460D463846FEF747F9CDE902013046D0
:10219000FEF742F9CDE9000122462B460D4802F038
:1021A000D9FE0AB0BDE8F08138D1000808D7000890
:1021B000A80A002018D700084C0A002050D70008B1
:1021C000DC0A002094D70008680A0020B8D700086D
:1021D000080A0020E0D7000808B501F05FFAB0FA5D
:1021E00080F0400908BD00002DE9B04382B001F045
:1021F00061F8A64B1B68C31A132B02D802B0BDE8C6
:10220000B0830446A14B1860A14D4FF400512846FD
:10221000FFF7E2FF9F4B18704FF480412846FFF70D
:10222000DBFF9D4B18704FF400412846FFF7D4FFA9
:102230009A4B18709A4B93F83030002B6DD1954B18
:102240001B7873B1934B5B785BB9964B1B68E31AB1
:10225000B3F5FA7F3DD2944A137801331370914B52
:102260001C60914B1B78012B45D98E4A1268A21A2B
:10227000642A40D98A4A92F831300133594203F036
:10228000030301F0030158BF4B42DBB282F8313047
:10229000854B0021197092F8313043B1134691619A
:1022A0000022DA6093F83130DBB2032B15D07C4B7F
:1022B00093F83130C3B17A4B93F83130DBB2012B54
:1022C00017D0774B93F83130DBB2022B0AD0774925
:1022D0000BE0754B01221A70C1E7754B9960002223
:1022E0009A61E4E7734900E07349744802F032FEF2
:1022F00003E07349F9E7012B19D0674B1B7823B131
:10230000654B5B78002B00F0B080644B1B7823B1E9
:10231000624B5B78002B00F0B0805E4B1A785A70ED
:102320005D4B1A785A705D4B1A785A7066E75D4BB0
:102330001B68E41AB4F5FA7FDFD9594B93F83130B2
:10234000ABB1574B93F83130DBB2012B2BD0544B50
:1023500093F83130DBB2022B45D0514B93F831303A
:10236000DBB2032B75D0504B00221A70C5E74C4AE4
:1023700092F82D100131A3F1AA3383FB010303EB83
:102380004303CB1ADCB282F82D404E4B53F8243075
:1023900013601068FEF740F802460B4621464A4893
:1023A00002F0D8FDDFE73E4A92F82E10013103F12A
:1023B000553383FB010303EB4303CB1ADCB282F8F2
:1023C0002E40424B53F82430536000239361002386
:1023D000D3605068FEF720F802460B4621463C4881
:1023E00002F0B8FDBFE72E4A92F82D000130394BBC
:1023F00083FB004101EB4101411ACCB282F82D4030
:1024000092F82E10013183FB010303EB4303CB1A37
:10241000DBB282F82E302B4951F8241011602B4981
:1024200051F823305360002393610023D360106878
:102430005768FDF7F1FF804689463846FDF7ECFF07
:10244000CDE9000142464B462146234802F082FD79
:1024500089E7134B002199610022DA60144B9960DF
:102460009A611E4802F0D8FD7DE70D4B002283F8EB
:102470002C201B4802F0D0FD47E7094B012283F8CE
:102480002C20184802F0C8FD47E700BF440A00208E
:1024900000100140E8090020E0090020F0090020B8
:1024A000A80A0020480A0020F809002064D100088A
:1024B0004C0A00205CD1000848D1000808D8000868
:1024C00050D10008D4D9000884D40008C8D9000825
:1024D000B0D4000856555555E0D4000824D800085B
:1024E0006CD1000874D100082DE9F041FEF740F8E6
:1024F00005462E4C60612168FEF744F9074660628C
:102500002B492846FEF7F2F9E169FEF733F8064653
:10251000E06160682749FEF72DF801462648FEF77E
:10252000E5F9044601463046FEF7E8FA08B11F4BCC
:10253000DC6104F1004421461C4BD869FEF7C0FA67
:1025400008B11A4BDC61194C6068E169FEF71AF9B1
:102550008046A062A1692846FEF70AF81449FEF7F2
:1025600011F92062A168FEF70DF90646E0624146C6
:102570003846FDF7FFFF01463046FDF7FBFF2063BD
:10258000646B2146FEF7BAFA08B1084B1C63074B8F
:102590009C6B2146186BFEF793FA08B1034B1C6342
:1025A000024B9D61186BBDE8F08100BFDC0A002082
:1025B00000007A44CDCCCC3D000048432DE9F041E9
:1025C000FDF7D6FF05462D4C60612168FEF7DAF86D
:1025D000074660622A492846FEF788F9E169FDF757
:1025E000C9FF0646E06160682649FDF7C3FF014662
:1025F0002548FEF77BF9044601463046FEF77EFA91
:1026000008B11E4BDC6104F1004421461B4BD86924
:10261000FEF756FA08B1194BDC61184C6068E169A5
:10262000FEF7B0F88046A062A1692846FDF7A0FF3A
:102630001349FEF7A7F82062A168FEF7A3F8064643
:10264000E06241463846FDF795FF01463046FDF70A
:1026500091FF20630D49FEF751FA08B10B4A22633E
:102660000B49064B186BFEF72BFA10B1034B084AC7
:102670001A63024B9D61186BBDE8F081680A002067
:1026800000007A44CDCCCC3D0000484200004040E0
:10269000000040C02DE9F041FDF76AFF05462D4CD2
:1026A00060612168FEF76EF8074660622A49284695
:1026B000FEF71CF9E169FDF75DFF0646E061606821
:1026C0002649FDF757FF01462548FEF70FF9044656
:1026D00001463046FEF712FA08B11E4BDC6104F1E8
:1026E000004421461B4BD869FEF7EAF908B1194BA3
:1026F000DC61184C6068E169FEF744F88046A0622E
:10270000A1692846FDF734FF1349FEF73BF8206224
:10271000A168FEF737F80646E06241463846FDF705
:1027200029FF01463046FDF725FF20630D49FEF7DE
:10273000E5F908B10B4A22630B49064B186BFEF70B
:10274000BFF910B1034B084A1A63024B9D61186B25
:10275000BDE8F081080A002000007A44CDCCCC3DD1
:102760000000484200004040000040C030B591B039
:102770002822002106A802F09BFB00240194029469
:10278000039404940594012206924FF48033079336
:102790000A9202250D950E934FF4E0130F9306A8AD
:1027A00000F0A0FF0F230193029503944FF4806380
:1027B00004930594294601A801F0C6F911B030BD73
:1027C000F0B585B000F058FDFFF7D0FFFEF7EAFE48
:1027D00000F076FC00F028FB00F058FB00F08EFBC8
:1027E00000F0CAFC01221146994800F05EFF994CA6
:1027F00000224FF40071204600F057FF00224FF4F2
:102800008061204600F051FF934B944919604FF0CE
:102810007C525A60924A9A609248586392489863F0
:10282000924B4FF0804018605A6091489860914CEC
:102830005C6391489863914B914D1D60914D5D6033
:102840009A605C639863904C4FF07E5323606160A4
:10285000012584F82F5084F82D5084F82E5000263E
:1028600084F82C6084F8305084F83160874B5D70B8
:102870001D70874F3146384601F00CFE3C218548DB
:1028800001F076FE3C21844801F072FE834801F09D
:10289000E9FA834802F0C0FB2A468249824802F0E6
:1028A0009CFA824802F0B8FB3B685E6366A3D3E9FA
:1028B0000023CDE9002300227D4B7E4802F04AFB35
:1028C0007D4802F0A9FB00224FF08043CDE90223AE
:1028D00000267A4FCDE900670022794B794802F053
:1028E00039FB0022784BCDE902230022774BCDE95A
:1028F000002332463B46764802F02CFB94F82D50DC
:102900002068FDF789FD02460B462946714802F012
:1029100021FB714802F080FB704802F07DFBFFE074
:102920006F4B00221A70FEF7DFFEFEE0564C206867
:102930006C49FDF7DBFF94F82C30012B05D02946BC
:10294000FFF7D2FD504B986253E000F10040F6E7EC
:102950004D4B586893F82C30012B0BD03146FFF7C4
:102960002DFE6049FDF7C2FF474CE169FFF7BCFD52
:10297000A0623EE000F10040F0E7434B586893F856
:102980002C30012B1BD03146FFF718FE044620F0F7
:1029900000403D4B1968FEF7B1F830B100212046E8
:1029A000FEF7ACF870B1384B1C684E492046FDF775
:1029B0009DFF354CE169FFF797FDA06219E000F13A
:1029C0000040E0E7304B1C6804F10044EDE731467D
:1029D000FFF760FE4349FDF789FF2B4CE169FFF7E4
:1029E00083FDA062404B9B69636002E0264B00229E
:1029F0009A62254B9D6A25F0004421492046FEF746
:102A00007DF828B139492046FEF75AF800B1374C15
:102A100000212846FEF772F8002869D100212846D7
:102A2000FEF74EF8002840F005810A4D00224FF4D1
:102A30000071284600F039FE00224FF480612846DC
:102A400000F033FE61E000BF000000C07268813F0B
:102A5000000C014000080140DC0A00200000204179
:102A6000CDCCCC3D00006144000061C4680A002068
:102A7000CDCC4C3D00004040000040C0080A002082
:102A80000000A040CDCC4C3EA80A00201C0B00202A
:102A9000700B0020B80B0020480C0020000C002018
:102AA00038D80008A40A0020900C002070D8000834
:102AB00000407F407CD80008A0D800080000F03F0C
:102AC0000000E03FD8D80008000049400000244042
:102AD00008D9000840D9000864D900089CD900082A
:102AE000000A002096430B3C4C0A00200000C8421C
:102AF0005A4D01224FF40071284600F0D6FD002205
:102B00004FF48061284600F0D0FD554B1D682046EB
:102B1000FDF7FEFF6863534B1B78002B40F0988055
:102B2000514B1B78002B7FF4FBAE504B1B78002BD6
:102B3000F1D04E4B00221A704D4B1B685A6A4D4B18
:102B40001A615869101A5A61B0F5004F01DDA0F5FD
:102B5000803010F5004F01DA00F58030454CA66951
:102B60000644A661FDF7BAFD4349FDF70BFE434954
:102B7000FDF7BCFE0546E0614149FDF703FE20621A
:102B800020F00040A0603046FDF7A8FD3C49FDF76D
:102B9000F9FD3A49FDF7AAFE0646606220F00043BF
:102BA000E360384B1B68596A374A11605368C81A8A
:102BB0005160B0F5004F01DDA0F5803010F5004FF9
:102BC00001DA00F58030304CA7680744A760FDF7B4
:102BD00085FD2949FDF7D6FD2849FDF787FEE06010
:102BE0002749FDF7CFFD20613846FDF777FD2449E1
:102BF000FDF7C8FD2149FDF779FE606120F0004333
:102C0000A3611C4B93F82F30002B3FF4EFAE194B10
:102C100093F83130DBB2032B3FF6EBAE01A252F852
:102C200023F000BF2D290008512900087B29000846
:102C3000CF290008094D00224FF40071284600F00A
:102C400034FD01224FF48061284600F02EFD5CE740
:102C5000044B00221A70FFF7C7FA61E70008014031
:102C6000700B0020D8090020000A0020010A002073
:102C7000B80B0020A80A002000007A440000FA43A4
:102C800096430B3C480C00204C0A002072B6FEE72D
:102C900008B50268184B9A4200D008BD174B0122B4
:102CA0001A70174A536801335360164A1368013388
:102CB0001360632B14D8144A13680133136041F274
:102CC0008732934212D8114A136801331360132BD1
:102CD000E3D9134600221A600D4B01221A70DCE77B
:102CE000134600221A60FFF753F9E4E7064B00226F
:102CF0001A60FFF7CDF9E6E700040040010A002062
:102D00001C0B0020040A0020180B0020DC09002006
:102D1000D809002082B00E4B9A6942F001029A61F4
:102D20009A6902F001020092009ADA6942F0805238
:102D3000DA61DB6903F080530193019B054A536814
:102D400023F0E06343F08063536002B0704700BF3C
:102D50000010024000000140FEE7FEE7FEE7FEE74C
:102D6000FEE770477047704708B500F097FA08BD56
:102D700008B5024801F0AEF808BD00BF000C002005
:102D800008B5024801F0CAFE08BD00BF900C002043
:102D90000120704708B502F061F8162303604FF078
:102DA000FF3008BD08B54FF0FF31FFF7F3FFFEE736
:102DB00070B50C461646002506E0AFF300802146AC
:102DC00001F8010B01350C46B542F6DB304670BD0B
:102DD00008B503460B4A126842B10A4A1068034418
:102DE0006A46934206D8074A136008BD054A064959
:102DF0001160F2E702F032F80C2303604FF0FF306D
:102E0000F3E700BF6C0B0020280D00204FF0FF30CF
:102E100070474FF400534B6000207047012070470B
:102E2000002070477047000000B58DB024220021BB
:102E300003A802F03DF800230193029312484FF0DB
:102E400080420260436083604FF6FF72C26003619C
:102E500083610323039301230593099303A901F0DD
:102E600083F950B900230193029301A9064801F0A8
:102E7000E5FB28B90DB05DF804FBFFF707FFF1E7AC
:102E8000FFF704FFF6E700BFB80B002000B587B0DE
:102E90000023029303930493059300930193154831
:102EA000154A026047224260836040F2E732C26006
:102EB0000361836101F000F990B94FF480530293EC
:102EC00002A90C4801F058FA68B900230093019355
:102ED0006946084801F0B2FB40B907B05DF804FB51
:102EE000FFF7D4FEE9E7FFF7D1FEEEE7FFF7CEFEEE
:102EF000F3E700BF000C00200004004000B58DB0D7
:102F00002422002103A801F0D3FF002301930293A0
:102F10001148124A0260436083604FF6FF72C2603C
:102F2000036183610323039301230593099303A999
:102F300001F01AF950B900230193029301A9064840
:102F400001F07CFB28B90DB05DF804FBFFF79EFE95
:102F5000F1E7FFF79BFEF6E7480C00200008004071
:102F60000268094B9A4200D0704782B003F564436F
:102F70009A6942F400629A619B6903F400630193C9
:102F8000019B02B0704700BF002C014010B588B013
:102F90000446002304930593069307930368B3F153
:102FA000804F05D022681F4B9A421CD008B010BD3C
:102FB00003F50433DA6942F00102DA61DA6902F0FA
:102FC00001020092009A9A6942F004029A619B6998
:102FD00003F004030193019B0323049304A9124803
:102FE00000F04AFADEE703F50233DA6942F0040240
:102FF000DA61DA6902F004020292029A9A6942F0F6
:1030000008029A619B6903F008030393039BC023A2
:10301000049300230593069304A9044800F02CFAB6
:10302000C4E700BF0008004000080140000C014058
:1030300002680E4B9A4200D0704700B583B003F58A
:103040000333DA6942F00202DA61DB6903F002035A
:103050000193019B002211461D2000F043F91D2021
:1030600000F078F903B05DF804FB00BF00040040F5
:1030700000B587B00023029303930493059302687D
:103080000D4B9A4202D007B05DF804FB03F5644390
:103090009A6942F004029A619B6903F00403019368
:1030A000019B4FF48073029302230393059302A9BB
:1030B000024800F0E1F9E6E7002C01400008014079
:1030C00010B592B000241094119409940A940B94B2
:1030D0000C940D940E940F942022214601A801F027
:1030E000E7FE2348234B036047234360846040F29C
:1030F000E733C36004614461846101F009F800288A
:1031000029D100231093119310A9194801F096FAC0
:1031100020BB6023099300220A920B920C920D921D
:103120000E920F9209A9124801F0ACF8C8B9002319
:10313000019302930393049305934FF40052069274
:10314000089301A90A4801F0AFFA68B90848FFF7E7
:103150008FFF12B010BDFFF799FDD2E7FFF796FD84
:10316000D7E7FFF793FDE2E7FFF790FDEEE700BF3B
:10317000700B0020002C014008B50848084B036084
:103180004FF4E133436000238360C36003610C228A
:1031900042618361C36101F0A0FB08BD900C002077
:1031A0000044004030B587B000230293039304939A
:1031B000059302681B4B9A4201D007B030BD03F55E
:1031C000E633DA6942F40032DA61DA6902F4003295
:1031D0000092009A9A6942F004029A619B6903F096
:1031E00004030193019B042302930223039303230B
:1031F00005930D4D02A9284600F03EF908230293DD
:103200000024039404940DEB0301284600F034F9E4
:1032100022460121262000F065F8262000F09AF8C9
:10322000CBE700BF004400400008014010B5044651
:103230000E4B18784FF47A73B3FBF0F30C4A106816
:10324000B0FBF3F000F094F868B90F2C01D901201D
:103250000AE0002221464FF0FF3000F043F8054B12
:103260001C60002000E0012010BD00BF0400002011
:10327000000000200800002008B5074A136843F04A
:1032800010031360032000F01BF80F20FFF7CEFFA0
:10329000FFF740FD002008BD00200240034A1168EE
:1032A000034B1B780B441360704700BFD80C002001
:1032B00004000020014B1868704700BFD80C0020A4
:1032C000074AD36823F4E0631B041B0C000200F4DC
:1032D000E060034343F0BF6343F40033D3607047BF
:1032E00000ED00E000B5194BDB68C3F30223C3F126
:1032F000070CBCF1040F28BF4FF0040C03F1040EBF
:10330000BEF1060F18D9033B4FF0FF3E0EFA0CFC3E
:1033100021EA0C0199400EFA03F322EA0303194350
:1033200000280BDB0901C9B200F1604000F56140E3
:1033300080F800135DF804FB0023E5E700F00F00C0
:103340000901C9B2024B1954F4E700BF00ED00E0D7
:1033500014ED00E0002807DB00F01F024009012304
:103360009340024A42F82030704700BF00E100E07D
:103370000138B0F1807F0BD24FF0E0235861054A4D
:10338000F02182F823100020986107221A6170470B
:103390000120704700ED00E090F82130DBB2022BF5
:1033A00006D004238363002380F820300120704777
:1033B0000268136823F00E0313600268136823F099
:1033C00001031360036CC16B012202FA03F34B602B
:1033D00080F82120002380F8203018467047000034
:1033E00008B590F82130DBB2022B03D004238363AD
:1033F000012008BD0268136823F00E031360026801
:10340000136823F0010313600368194A934214D030
:10341000143293421FD0143293421ED0143293427E
:103420001ED0143293421ED01432934202D04FF079
:10343000807203E04FF4801200E001220D4B5A60CD
:10344000012380F82130002380F82030436B6BB1DA
:1034500098470020CDE71022F0E74FF48072EDE7A7
:103460004FF48052EAE74FF48032E7E70020C0E7EC
:10347000080002400000024070B582B00024A4465B
:10348000A6E0804DAA4210D007D97F4DAA420CD0A9
:1034900005F58035AA4208D013E0A5F58015AA42AB
:1034A00003D005F57025AA4207D18A68002A58D0B2
:1034B000012A51D04361082403E0A5F58015AA42F2
:1034C000F3D0BEF1FF0F4ED80646BEF1FF0F4CD829
:1034D0004FEA8C0233680F25954023EA050304FA6E
:1034E00002F2134333604B6813F0805F6ED0674B7A
:1034F0009A6942F001029A619B6903F0010301930A
:10350000019B4FEA9C02951C614B53F825600CF01F
:1035100003039D000F23AB4026EA03065D4B984250
:1035200029D003F58063984200F08E8003F5806314
:10353000984200F08B8003F58063984219D00423F1
:103540001AE0CC68BDE7CC680434BAE7CC6808342C
:10355000B7E7CC680C34B4E703610824B1E7002472
:10356000AFE70424ADE7061DAFE7ACF10802920017
:10357000B0E7032300E00023AB4033430232444D65
:1035800045F822304B6813F4801F61D0424A93689B
:1035900043EA0E0393604B6813F4001F5ED03E4A6B
:1035A000D36843EA0E03D3604B6813F4003F5BD04B
:1035B000394A536843EA0E0353604B6813F4803F63
:1035C00058D0354A136843EA0E0313600CF1010C1E
:1035D0000A6832FA0CF353D0012303FA0CF302EA1F
:1035E000030E33EA0202F1D14A68122A3FF649AFCC
:1035F000122A3FF666AF01A555F822F0AB34000859
:10360000433500084D3500085F350008C334000815
:10361000C3340008C3340008C3340008C3340008AE
:10362000C3340008C3340008C3340008C33400089E
:10363000C3340008C3340008C3340008C33400088E
:103640004735000853350008012395E7022393E727
:10365000114A936823EA0E0393609CE70E4AD368ED
:1036600023EA0E03D3609FE70B4A536823EA0E0355
:103670005360A2E7084A136823EA0E031360A5E724
:1036800002B070BD00002210000031100010024096
:103690000000014000080140000401408368194215
:1036A00001D001207047002070470AB101617047C6
:1036B000090401617047000082B0084B1B68084A8A
:1036C000A2FB03235B0A00FB03F3019300BF019BF2
:1036D0005A1E0192002BF9D102B070470000002061
:1036E000D34D6210002800F0F18170B582B004461D
:1036F000036813F0010F2CD0994B5B6803F00C03A7
:10370000042B1DD0964B5B6803F00C03082B12D0E2
:103710006368B3F5803F41D0002B55D103F180435E
:1037200003F504331A6822F480321A601A6822F40E
:1037300080221A6037E08A4B5B6813F4803FE7D041
:10374000874B1B6813F4003F03D06368002B00F025
:10375000BF81236813F0020F75D0814B5B6813F0B3
:103760000C0F5FD07E4B5B6803F00C03082B54D02A
:103770002369002B00F08A807A4B01221A60FFF740
:1037800099FD0546764B1B6813F0020F75D1FFF7C4
:1037900091FD401B0228F5D903209EE1704A136871
:1037A00043F480331360636843B3FFF783FD05463A
:1037B0006B4B1B6813F4003FCBD1FFF77BFD401B25
:1037C0006428F5D9032088E1B3F5A02F09D0644B14
:1037D0001A6822F480321A601A6822F480221A6071
:1037E000E1E703F18043A3F53C331A6842F48022F9
:1037F0001A601A6842F480321A60D4E7FFF75AFD63
:103800000546574B1B6813F4003FA2D0FFF752FD4B
:10381000401B6428F5D903205FE1514B5B6813F42A
:10382000803FA5D14E4B1B6813F0020F03D02369D4
:10383000012B40F04F814A4A136823F0F803616975
:1038400043EAC1031360236813F0080F33D0A36960
:10385000002B5CD0434B0122C3F88024FFF72AFDE4
:1038600005463F4B5B6A13F0020F21D1FFF722FDA3
:10387000401B0228F5D903202FE1394A136823F0B1
:10388000F803616943EAC1031360DCE7354B0022AA
:103890001A60FFF70FFD0546314B1B6813F0020F4E
:1038A000D1D0FFF707FD401B0228F5D9032014E112
:1038B0000120FFF701FF236813F0040F00F096804A
:1038C000274BDB6913F0805F34D1254BDA6942F076
:1038D0008052DA61DB6903F080530193019B01257B
:1038E000214B1B6813F4807F26D0E368012B3DD069
:1038F000002B53D103F1804303F504331A6A22F0FD
:1039000001021A621A6A22F004021A6233E0154BAD
:103910000022C3F88024FFF7CDFC0546104B5B6AFC
:1039200013F0020FC7D0FFF7C5FC401B0228F5D9E2
:103930000320D2E00025D3E70B4A136843F48073D9
:103940001360FFF7B7FC0646074B1B6813F4807F34
:10395000CBD1FFF7AFFC801B6428F5D90320BCE076
:103960000010024000004242007000405F4A136AAB
:1039700043F001031362E36833B3FFF79BFC064691
:103980005A4B1B6A13F0020F2FD1FFF793FC801BD9
:1039900041F288339842F3D903209EE0052B09D0E9
:1039A000524B1A6A22F001021A621A6A22F00402C9
:1039B0001A62E0E74D4B1A6A42F004021A621A6A70
:1039C00042F001021A62D6E7FFF774FC0646474B45
:1039D0001B6A13F0020F08D0FFF76CFC801B41F24A
:1039E00088339842F3D9032077E0E5B9E369002BE7
:1039F00072D03E4A526802F00C02082A56D0022BBE
:103A000017D03B4B00221A66FFF754FC0446374B95
:103A10001B6813F0007F47D0FFF74CFC001B022807
:103A2000F5D9032059E0314AD36923F08053D3619B
:103A3000DCE72F4B00221A66FFF73CFC05462B4BB8
:103A40001B6813F0007F06D0FFF734FC401B0228F0
:103A5000F5D9032041E0236AB3F5803F1AD023490A
:103A60004B6823F47413226A606A024313434B6069
:103A70001F4B01221A66FFF71DFC04461B4B1B68F7
:103A800013F0007F0ED1FFF715FC001B0228F5D9BB
:103A9000032022E0154A536823F40033A1680B4346
:103AA0005360DCE7002018E0002016E0012B16D060
:103AB0000E4B5B6803F48031226A914211D103F40A
:103AC0007013626A93420ED1002006E00120704715
:103AD000012002E0012000E0002002B070BD0120C2
:103AE000FBE70120F9E70120F7E700BF00100240E3
:103AF000000042420F4B5B6803F00C02082A01D021
:103B00000D487047C3F383420C49885C13F4803F2F
:103B10000BD0084B5B68C3F34043094AD35C064AA9
:103B200002FB00F0B0FBF3F07047064B03FB00F024
:103B3000704700BF0010024000127A00F8D9000858
:103B400008DA000800093D00002800F0A08070B5E8
:103B50000D460446524B1B6803F007038B420BD201
:103B60004F4A136823F007030B431360136803F0F5
:103B700007038B4240F08D80236813F0020F17D0AB
:103B800013F0040F04D0474A536843F4E0635360D2
:103B9000236813F0080F04D0424A536843F460537B
:103BA0005360404A536823F0F003A1680B4353600D
:103BB000236813F0010F31D06368012B20D0022B52
:103BC00025D0384A126812F0020F64D035494A688D
:103BD00022F0030213434B60FFF76CFB0646314BA8
:103BE0005B6803F00C036268B3EB820F16D0FFF73B
:103BF00061FB801B41F288339842F0D9032045E0F5
:103C0000284A126812F4003FE0D101203EE0254A24
:103C1000126812F0007FD9D1012037E0204B1B68D9
:103C200003F00703AB420AD91D4A136823F00703C8
:103C30002B431360136803F00703AB422DD12368B5
:103C400013F0040F06D0174A536823F4E063E168C9
:103C50000B435360236813F0080F07D0114A5368D1
:103C600023F46053216943EAC1035360FFF742FF25
:103C70000C4B5B68C3F303130B4AD35CD8400B4B6C
:103C800018600B4B1868FFF7D1FA002070BD0120B7
:103C900070470120FAE70120F8E70120F6E700BFAE
:103CA0000020024000100240E0D90008000000207F
:103CB00008000020014B1868704700BF000000207A
:103CC00008B5FFF7F7FF044B5B68C3F30223034A11
:103CD000D35CD84008BD00BF00100240F0D90008F6
:103CE00008B5FFF7E7FF044B5B68C3F3C223034A41
:103CF000D35CD84008BD00BF00100240F0D90008D6
:103D000070B4036A026A22F00102026246688269A4
:103D100022F073020C6844EA020523F002028B6869
:103D200013430D4CA04209D00B4CA0420DD046606D
:103D300085614A684263036270BC704723F00803E0
:103D4000CA68134323F00403EEE726F440764A6979
:103D500032438E691643EAE7002C014030B4036A0F
:103D6000026A22F4807202624568C26922F073021C
:103D70000C68224323F400738C6843EA04230F4C3D
:103D8000A04209D00D4CA0420ED04560C2614A68E5
:103D9000C263036230BC704723F40063CC6843EA1B
:103DA000042323F48063EDE725F440554C6945EA8C
:103DB00004158C6945EA0415E7E700BF002C0140B3
:103DC00030B4036A026A22F4805202624468C26913
:103DD00022F4E6420D6842EA052223F400538D687E
:103DE00043EA0533074DA84206D04460C2614A68E1
:103DF0000264036230BC704724F480444D6944EA95
:103E00008514F2E7002C014010B4036A046A24F020
:103E100001040462846924F0F00C4CEA021223F0DD
:103E20000A030B438261036210BC704710B4036A3B
:103E3000046A24F010040462846924F4704C4CEA8F
:103E4000023223F0A00343EA01138261036210BC33
:103E50007047836823F070030B4343F007038360CC
:103E60007047000090F83D30DBB2012B27D10223D0
:103E700080F83D300268D36843F00103D3600368E3
:103E8000114A934210D0B3F1804F0DD0A2F5943275
:103E9000934209D002F58062934205D01A6842F03D
:103EA00001021A60002070479A6802F00702062A91
:103EB00007D01A6842F001021A6000207047012002
:103EC00070470020704700BF002C014070477047CA
:103ED0007047704770B504460368DE681D6915F0C9
:103EE000020F10D016F0020F0DD06FF002021A610F
:103EF0000123037703689B6913F0030F5ED0FFF77C
:103F0000E6FF0023237715F0040F12D016F0040FFC
:103F10000FD023686FF004021A610223237723680D
:103F20009B6913F4407F4FD02046FFF7D0FF00235A
:103F3000237715F0080F12D016F0080F0FD0236862
:103F40006FF008021A61042323772368DB6913F0FA
:103F5000030F40D02046FFF7BAFF0023237715F068
:103F6000100F12D016F0100F0FD023686FF0100250
:103F70001A61082323772368DB6913F4407F31D06B
:103F80002046FFF7A4FF0023237715F0010F02D08E
:103F900016F0010F2DD115F0800F02D016F0800F12
:103FA0002FD115F0400F02D016F0400F31D115F08F
:103FB000200F02D016F0200F33D170BDFFF786FF1F
:103FC0002046FFF785FF9CE72046FFF77FFF20464E
:103FD000FFF77EFFABE72046FFF778FF2046FFF7AD
:103FE00077FFBAE72046FFF771FF2046FFF770FF23
:103FF000C9E723686FF001021A612046FEF748FE08
:10400000C9E723686FF080021A61204600F076FB52
:10401000C7E723686FF040021A612046FFF759FF97
:10402000C5E723686FF020021A61204600F065FBA7
:10403000C3E7000003681F4A90420AD0B0F1804FE6
:1040400007D0A2F59432904203D002F580629042EC
:1040500003D123F070034A681343164A90420AD0F2
:10406000B0F1804F07D0A2F59432904203D002F510
:104070008062904203D123F44073CA68134323F053
:1040800080034A69134303608B68C3620B688362D1
:10409000084B98420AD001234361036913F0010FD2
:1040A00003D0036923F00103036170470B690363C5
:1040B000F1E700BF002C014040B310B5044690F872
:1040C0003D30F3B1022384F83D30214651F8040B12
:1040D000FFF7B0FF012384F8463084F83E3084F8BF
:1040E0003F3084F8403084F8413084F8423084F81E
:1040F000433084F8443084F8453084F83D30002063
:1041000010BD80F83C30FEF793FFDBE701207047DD
:1041100040B310B5044690F83D30F3B1022384F863
:104120003D30214651F8040BFFF784FF012384F84A
:10413000463084F83E3084F83F3084F8403084F8CC
:10414000413084F8423084F8433084F8443084F8B5
:10415000453084F83D30002010BD80F83C30FEF73B
:10416000FFFEDBE701207047002857D070B50D46F1
:10417000044690F83D30002B4BD0022384F83D30AC
:104180002268936823F4804323F007039360214659
:1041900051F8040BFFF74EFF21688A688B690E6A9D
:1041A0002868104323F4407C2CF0030CAA68AB6908
:1041B00042EA032343EA0C0323F47C4323F0FC0389
:1041C000EA69D5F80CC04CEA022C4CEA030C2A6AC6
:1041D00013032A6943EA021343EA0C0326F022067A
:1041E0006A686D6942EA05123243886021688B6112
:1041F00023681A62012384F8463084F83E3084F83C
:104200003F3084F8423084F8433084F83D30002059
:1042100070BD80F83C30FEF7B9FEAEE70120704774
:1042200030B4036A026A22F01002026244688269B2
:1042300022F4E6420D6842EA052223F020038D684D
:1042400043EA05130E4DA84209D00D4DA8420ED0E9
:10425000446082614A688263036230BC704723F025
:104260008003CD6843EA051323F04003EDE724F40F
:1042700040644D6944EA85048D6944EA8504E7E7B2
:10428000002C014038B590F83C30012B66D0044634
:104290000D46012380F83C300C2A5AD8DFE802F0A2
:1042A000075959591B5959593059595944000068EF
:1042B000FFF726FD2268936943F0080393612268A3
:1042C000936923F0040393612268936929690B437E
:1042D000936100203EE00068FFF7A2FF2268936927
:1042E00043F4006393612268936923F480639361CC
:1042F00022689369296943EA01239361002029E038
:104300000068FFF72BFD2268D36943F00803D361EF
:104310002268D36923F00403D3612268D369296931
:104320000B43D361002015E00068FFF749FD2268C8
:10433000D36943F40063D3612268D36923F48063B3
:10434000D3612268D369296943EA0123D36100203C
:1043500000E00120002384F83C3038BD0220FCE757
:1043600010B4846824F47F4C42EA03220A4342EAF0
:104370000C02826010BC704790F83C30012B78D062
:1043800010B50446012380F83C30022380F83D300C
:104390000268936823F47F4323F0770393600B68EC
:1043A000602B4CD029D8402B54D00CD9502B22D183
:1043B000CA6849680068FFF727FD50212068FFF7A9
:1043C00048FD002005E0202B0DD009D9302B0AD064
:1043D0000120012384F83D30002384F83C3010BDD7
:1043E0000BB1102B05D119462068FFF732FD0020D4
:1043F000EFE70120EDE70120EBE7B3F5805F34D074
:10440000B3F5005F0CD1CB684A6889680068FFF794
:10441000A7FF2268936843F4804393600020D8E7A5
:10442000702B24D1CB684A6889680068FFF798FF31
:104430002268936843F0770393600020C9E7CA6855
:1044400049680068FFF7F2FC60212068FFF701FD72
:104450000020BEE7CA6849680068FFF7D5FC402124
:104460002068FFF7F6FC0020B3E70020B1E7012049
:10447000AFE70220704701F01F01012303FA01FC9E
:10448000036A23EA0C030362036A02FA01F10B4395
:104490000362704710B50446084651BB94F83E309D
:1044A000DBB2013B18BF0123002B5BD1002839D1BF
:1044B000022384F83E30012201462068FFF7DBFF2B
:1044C00023682A4A93423DD02368284A93423ED02B
:1044D000B3F1804F3BD0A2F59432934237D002F52E
:1044E0008062934233D01A6842F001021A600020C1
:1044F00039E0042908D008290DD094F84130DBB206
:10450000013B18BF0123CFE794F83F30DBB2013BFA
:1045100018BF0123C8E794F84030DBB2013B18BF55
:104520000123C1E7042805D0082807D0022384F816
:104530004130C0E7022384F83F30BCE7022384F80F
:104540004030B8E75A6C42F400425A64BCE79A68BB
:1045500002F00702062A07D01A6842F001021A6028
:10456000002000E0012010BD0020FCE7002C0140ED
:1045700038B5044690F83E00C0B294F83F3094F845
:104580004220D2B294F843C00D46B1B9012849D1B6
:10459000012A48D1022384F83E3084F842307DB3AA
:1045A000042D39D0012200212068FFF764FF012289
:1045B00004212068FFF75FFF27E0DBB25FFA8CFC85
:1045C000042912D0012833D1012B2CD1012A31D159
:1045D000BCF1010F30D1022384F83E3084F83F3023
:1045E00084F8423084F84330D9E7012B1CD1BCF168
:1045F000010F1BD1022384F83F3084F84330CEE70B
:10460000012200212068FFF736FF2268136843F07B
:1046100001031360002006E0012204212068FFF757
:104620002AFFF2E7012038BD0120FCE71846FAE72F
:104630000120F8E71846F6E71046F4E790F83C301A
:10464000012B2CD010B4012380F83C30022380F8D9
:104650003D3003685A689C6822F0700C0A6842EA90
:104660000C025A6003680F4A93420AD0B3F1804F9C
:1046700007D0A2F59432934203D002F580629342B0
:1046800004D124F080044A6814439C60012380F81C
:104690003D30002380F83C30184610BC70470220A3
:1046A000704700BF002C014090F83C30012B22D015
:1046B000012380F83C30CB6823F440738A681343AD
:1046C00023F480634A68134323F400630A681343A6
:1046D00023F480530A69134323F400534A691343B4
:1046E00023F48043CA69134302685364002380F8AB
:1046F0003C30184670470220704770477047026888
:1047000002F10C0353E8003F23F490730C3242E8AB
:1047100000310029F3D1026802F1140353E8003F8D
:1047200023F00103143242E800310029F3D1036B76
:10473000012B05D0202380F842300023036370470B
:10474000026802F10C0353E8003F23F010030C321F
:1047500042E800310029F3D1ECE790F84130DBB2B8
:10476000212B01D0022070478368B3F5805F17D0FA
:10477000036A5A1C02621A7803685A60C38C9BB29F
:10478000013B9BB2C3844BB90268D36823F080031A
:10479000D3600268D36843F04003D36000207047C1
:1047A0000369002BE4D1036A1B880268C3F3080382
:1047B0005360036A02330362E0E7000010B5044669
:1047C0000268136923F44053C1680B431361836883
:1047D0000269134342691A430168CB6823F4B0535A
:1047E00023F00C031343CB600268536923F4407336
:1047F00081690B4353610268134B9A4220D0FFF743
:104800005FFA024602EB820202EB820263689B00BF
:10481000B2FBF3F20D48A0FB02314909642303FB0C
:1048200011231B013233A0FB03235B0903F0F002C9
:1048300002EB011203F00F03216813448B6010BDDB
:10484000FFF74EFA0246DDE7003801401F85EB51C5
:104850002DE9F04383B005460E4617469946DDF82C
:1048600028802C68246836EA04030CBF4FF0010C42
:104870004FF0000CBC4528D1B8F1FF3FF1D0FEF756
:1048800019FDA0EB0900404523D8B8F1000F22D054
:104890002B68DA6812F0040FE3D0802EE1D0402EAE
:1048A000DFD01A6812F0080FDBD0002401941A68D8
:1048B00001925B680193019B2846FFF720FF0823C4
:1048C0006B6485F84040012000E0002003B0BDE8A3
:1048D000F0830320FAE70320F8E760B310B504463D
:1048E00090F8413013B3242384F841302268D36810
:1048F00023F40053D3602046FFF760FF226813695A
:1049000023F4904313612268536923F02A0353610F
:104910002268D36843F40053D360002060642023EE
:1049200084F8413084F84230606310BD80F8403034
:10493000FEF738FCD7E7012070472DE9F04182B03F
:104940001E4690F84130DBB2202B56D104460D466E
:104950009046002955D00AB901204FE00023436456
:10496000212380F84130FEF7A5FC0746A4F82480F7
:10497000A4F82680A368B3F5805F02D04FF000084A
:1049800014E023692BB34FF000080FE0202384F8D4
:104990004130032032E038F8023B2268C3F30803B9
:1049A0005360E28C92B2013A92B2E284E38C9BB201
:1049B00093B100963B46002280212046FFF748FF36
:1049C0000028E3D1002DE6D015F8012B23685A60AA
:1049D000E7E7A8460025E9E700963B46002240218C
:1049E0002046FFF735FF18B9202384F8413005E051
:1049F000202384F84130032000E0022002B0BDE80B
:104A0000F0810120FAE7704708B50168CA6822F012
:104A10004002CA60202280F84120FFF7F4FF002006
:104A200008BD704708B5406A0023C385C384FFF7FB
:104A3000F8FF08BD704790F84230DBB2222B69D1F5
:104A40008368B3F5805F4FD0826AB3F5805F04D08E
:104A5000002B56D10369002B53D103685B68137098
:104A6000836A01338362C38D9BB2013B9BB2C385D2
:104A7000002B51D100B583B00268D36823F0200326
:104A8000D3600268D36823F48073D36002685369EB
:104A900023F001035361202380F842300023436355
:104AA000036B012B33D100230363026802F10C0373
:104AB00053E8003F23F010030C3242E80031002994
:104AC000F3D103681A6812F0100F06D00022019289
:104AD0001A6801925B680193019B818DFFF7AAFF21
:104AE000002003B05DF804FB0269002AACD1826AA1
:104AF00003685B68C3F308031380836A023383622D
:104B0000B1E703685B6803F07F031370A8E7FCF765
:104B1000AFFDE5E7022070470020704730B583B055
:104B2000044602681368D068516913F00F0505D177
:104B300013F0200F02D010F0200F19D12DB111F079
:104B4000010119D110F4907F16D1216B01297DD07C
:104B500013F0800F03D010F0800F40F0188113F095
:104B6000400F03D010F0400F40F0158103B030BD6E
:104B70002046FFF760FFF9E713F0010F06D010F4AD
:104B8000807F03D0626C42F00102626413F0040F74
:104B900004D019B1626C42F00202626413F0020F99
:104BA00004D019B1626C42F00402626413F0080F81
:104BB00007D010F0200F00D119B1626C42F008024A
:104BC0006264626C002AD1D013F0200F02D010F082
:104BD000200F29D123685B6903F04003626C12F057
:104BE000080F00D163B32046FFF789FD23685B6996
:104BF00013F0400F20D0226802F1140353E8003F65
:104C000023F04003143242E800310029F3D1E36B72
:104C100073B1634A5A63E06BFEF7E2FB0028A5D04C
:104C2000E06B436B9847A1E72046FFF704FFD1E70D
:104C30002046FFF7F6FE99E72046FFF7F2FE95E7DC
:104C40002046FFF7EEFE002363648FE713F0100F9A
:104C50003FF47EAF10F0100F3FF47AAF00230193C2
:104C60001368019353680193019B536913F0400F3C
:104C700051D0E26B13685B689BB2002B3FF476AFB8
:104C8000A18D99427FF672AFE3859369202B37D0CF
:104C9000226802F10C0353E8003F23F480730C32C6
:104CA00042E800310029F3D1226802F1140353E8ED
:104CB000003F23F00103143242E800310029F3D110
:104CC000226802F1140353E8003F23F0400314323A
:104CD00042E800310029F3D1202384F84230002338
:104CE0002363226802F10C0353E8003F23F0100312
:104CF0000C3242E800310029F3D1E06BFEF74CFBA7
:104D000002236363A18DE38D9BB2C91A89B2204649
:104D1000FFF790FE2AE7A18DE38D9BB2C91A89B2F5
:104D2000E38D9BB2002B3FF421AF00293FF41EAF6F
:104D3000226802F10C0353E8003F23F490730C3215
:104D400042E800300028F3D1226802F1140353E84E
:104D5000003F23F00103143242E800300028F3D171
:104D6000202384F8423000232363226802F10C03DD
:104D700053E8003F23F010030C3242E800300028D3
:104D8000F3D1022363632046FFF754FEEEE620468C
:104D9000FFF7E3FCEAE62046FFF736FEE6E600BF53
:104DA000254A000881628285C2850023436422234C
:104DB00080F84230036923B10268D36843F48073FA
:104DC000D3600268536943F0010353610268D368FA
:104DD00043F02003D3600020704708B590F84230BC
:104DE000DBB2202B08D149B10AB9012008BD00234C
:104DF0000363FFF7D7FFF9E70220F7E70120F5E7A4
:104E0000FEF710F80B480C490C4A002302E0D45876
:104E1000C4500433C4188C42F9D3094A094C002306
:104E200001E013600432A242FBD300F01DF8FDF74D
:104E3000C7FC704700000020BC09002010E00008FB
:104E4000BC090020240D0020FEE70000002101F035
:104E50005FBB00BF0A22002101F0F6BB014B1868BE
:104E6000704700BF0C00002070B50D4E0D4D761B35
:104E7000B61006D0002455F8043B01349847A642EA
:104E8000F9D1094E094D08F049F9761BB61006D044
:104E9000002455F8043B01349847A642F9D170BD6F
:104EA00004E0000804E000080CE0000804E000084A
:104EB000830730B548D0541E002A3FD00346CAB2FB
:104EC00001E0013C3AD303F8012B9D07F9D1032CF3
:104ED0002DD9CDB245EA05250F2C45EA054536D931
:104EE000A4F1100222F00F0C03F1200EE6444FEA69
:104EF000121C03F1100242E9045542E90255103236
:104F00007245F8D10CF1010214F00C0F03EB021200
:104F100004F00F0C13D0ACF1040323F003030433AB
:104F2000134442F8045B9342FBD10CF003042CB110
:104F3000CAB21C4403F8012B9C42FBD130BD64462D
:104F40001346002CF4D1F9E703461446BFE71A468E
:104F5000A446E0E70FB400B5074A83B004AB10687D
:104F600053F8042B8168019301F084FB03B05DF8D2
:104F700004EB04B0704700BF0C00002030B50546BC
:104F800089B008460C4600F0B5F801210223214AF9
:104F900004940692AA6B04AC05900844019407910E
:104FA000AC680293039022B3636E13F0010FB4F95F
:104FB0000C309AB201D1980525D5910406D4626EC1
:104FC00043F4005322F40052A3816266284601AAEA
:104FD000214604F071FC636E002814BF4FF0FF35CA
:104FE0000A25DA0702D4A3899B0506D5284609B00D
:104FF00030BD284604F068FAD6E7A06D05F02CFA1B
:10500000284609B030BDA06D05F024FAB4F90C3083
:105010009AB2D2E73CD30008024B01461868FFF76A
:10502000ADBF00BF0C00002011F0FF01034644D0CB
:10503000820732D110B5046841EA012E4EEA0E4EC5
:105040008EEA0402A2F1013323EA0203A4F1013241
:1050500022EA0402134313F0803F0FD150F8044FAB
:1050600084EA0E0CA4F10133ACF1013223EA04030B
:1050700022EA0C02134313F0803FEFD0037823B9E8
:1050800036E010F8013F002B32D09942F9D110BD23
:105090008A4211D09A071846CCD0184613F8012B33
:1050A000002AF5D1104670479907184607D01846D0
:1050B00002780133002AF7D170478207F7D10268DE
:1050C000A2F1013323EA020313F0803F08D150F824
:1050D000042FA2F1013323EA020313F0803FF6D03C
:1050E0000378002BE8D010F8013F002BFBD170476C
:1050F000184610BD20F0030110F00300C0F10000BD
:1051000051F8043B00F1040C4FEACC0C6FF00002A4
:105110001CBF22FA0CF213434FF0010C4CEA0C2C8A
:105120004CEA0C4CA3EB0C0222EA030212EACC126A
:1051300004BF51F8043B0430F4D0C2F1000102EA8C
:105140000102B2FA82F2C2F11F0200EBD2007047F4
:1051500030B540EA0104A30722D1032A20D90B4627
:105160008446194653F8045BA5F1013424EA05048A
:1051700014F0803F15D1043A032A19464CF8045B19
:10518000EFD801F1FF3E52B163461EF8011F541ED5
:1051900003F8011B41B122469C46002AF4D130BDE0
:1051A000844601F1FF3EEEE76244002CF7D003F89D
:1051B000011B9342FBD130BD2DE9F04F012B1D4661
:1051C00081460F469046ADF21C4D40F247810123C7
:1051D00000219C464FF0FF341A4606E01946012292
:1051E000A3EB040C8B189D4210D908EB0400805CE3
:1051F00018F803608642F1D300F081804FF0010C73
:1052000062460C4661448B189D42EED8CDF808C02A
:105210004FF0010C00204FF0FF366146634606E078
:1052200018460121A3EB060C43189D420FD908EB49
:10523000010218F803E0925D9645F1D865D04FF071
:10524000010C61460646604443189D42EFD8013682
:1052500004F1010BB34502D8B346CDF808C005AB45
:105260000DF2144243F8045F9342FBD1002D00F08D
:10527000FA806C1E06AE08F1FF3208EB04000196BE
:1052800012F8011FD3432B444344904246F8213087
:10529000F6D1029E5A46404608EB060105F058FC3E
:1052A000002840F083800BF1FF3305938246AB1B4F
:1052B0000646039309EB060E1EF80430019A52F8D5
:1052C000233043B3BAF1000F04D0029A9342039AF9
:1052D00038BF13464FF0000A1E447B1BB342E9D28D
:1052E00009EB070045F4006106F0C8FC07447B1B8E
:1052F000B342DFD200200DF21C4DBDE8F08F944583
:105300000ABF0122013261446CE761450ABF4018BF
:105310000131012188E7D3455B4638BF5346A3429C
:1053200014D2591E9A1941444A4402E00133A3425F
:105330000CD212F8010B11F801CF8445F6D0CBF155
:10534000010216444FF0000A1E44C6E7D345059BF0
:105350007DD90BEB06024A4408EB0B01CDF810B0E7
:1053600002E0534516D0034612F8010D11F801CDA5
:1053700003F1010B844503F1FF30F2D05B46DDF809
:1053800010B00AF1010A9A450BD8029BDDF80CA077
:105390001E44A2E753460AF1010A9A45DDF810B00F
:1053A000F3D970460DF21C4DBDE8F08FA5EB0B0351
:1053B0005B4538BF5B4600260BF1FF32029201339A
:1053C000CBF10102039245F4006A049309EB060E47
:1053D0001EF80430019A52F823306BB11E447B1B37
:1053E0009E42F3D909EB0700514606F047FC0744FB
:1053F0007B1B9E42EAD97DE7A34513D202990BEBB2
:1054000006025B464A44414402E00133A34209D20A
:1054100012F8010B11F801CF8445F6D0039A164417
:105420001E44DCE7BBF1000F13D00BEB060149442F
:1054300008EB0B0202E0013B43450AD0134611F88A
:10544000010D12F801CD8445F5D0049BC6E75B46FB
:1054500097E770460DF21C4DBDE8F08F01234FF029
:10546000000B0293FBE606AB4FF0FF34019310E70D
:105470002DE9F0410D460978044690B0002953D03B
:105480006A78002A00F08380AB78002B50D0E8784F
:10549000002800F083802B79002B57D02846FFF797
:1054A00029FE0646204646F4007106F0E7FB8642D8
:1054B0005CD8FE2E00F28780801B271840226846A9
:1054C000711CFFF7F5FC7EB16A1E5FFA86FC90192D
:1054D00012F8013F03F03F034033A91A6B446144C3
:1054E000824203F8401CF3D1013CA35D03F03F036B
:1054F00040336B4413F8400C0444A74203D23AE013
:105500004444A74237D314F806C020460CF03F0CA1
:105510000CF140030DEB030C324629461CF8408C7D
:1055200005F016FB0028EBD1204610B0BDE8F08155
:10553000007842EA014200E00C4640EA0343611C65
:10554000A0B19A426078F7D1013CEDE722786AB1C8
:10555000296809BA01E099421ED0204642EA032395
:1055600014F8012F002AF6D1994215D000242046C4
:1055700010B0BDE8F081BB5DB819002BF6D04FF438
:10558000006106F07BFB0744BC42ADD9EEE710B0EA
:10559000BDE8F041FFF748BDC41EC5E7120442EA6A
:1055A000016242EA03230146207800E02C4640EAEB
:1055B0000102651C11020028D8D0B3EB022F6078DD
:1055C000F4D1023CB0E7014633462A46204610B0EB
:1055D000BDE8F041FFF7F0BD2DE9F04F0025824610
:1055E0009748A1B00068884607921C4608901C9511
:1055F000FFF780FD0021834600204246CDE90401EB
:10560000CDF86C80174612F8013B2D2B2FD8DFE820
:1056100013F0A0002E002E002E002E002E002E00D3
:105620002E002E00AD00AD00AD00AD00AD002E008F
:105630002E002E002E002E002E002E002E002E00FA
:105640002E002E002E002E002E002E002E002E00EA
:105650002E00AD002E002E002E002E002E002E005B
:105660002E002E002E002E0002042E00F803002231
:105670000992302B7CD000220B922F2B1C4640F23B
:1056800029854FF0000938464E464D4612E001305C
:10569000082D1B90C8BF09EB89090478C6BF03EB2E
:1056A0004903A3F13009A2F130062F2C234605F15E
:1056B00001056EDD06EB8602392C03EB4202E6DDC6
:1056C0005A46089906F09CFA002835D11B9B1A46C9
:1056D0005B441B9312F80B40002D40F0A885302C42
:1056E00040F06085C3F10102981801331B931C78C8
:1056F000302CF9D0A4F13103082B00F23583A4F14A
:10570000300E1B9C00230125274600F1010B0A9354
:10571000002006EB86060EEB4606631C1B9364789E
:10572000A4F13001092900F2E9828E4601300029F6
:1057300040F0AF841B9CF0E70020652C8346844634
:105740000A9501D0452C30D1002D7ED10B9B03430F
:105750007AD14FF0000B079BD94613B1079BC3F8D2
:1057600000805846494621B0BDE8F08F1B9249E7BA
:105770007B7803F0DF03582B00F06D8401371B9713
:105780003B78302BFAD0002B00F0CE8001220B9218
:1057900073E75A46089906F033FA002800F0D780DC
:1057A0000A954FF0000B5846DC4600230C93002D61
:1057B00000F096800A9A30461346002A08BF2B460E
:1057C0000A93FAF707FE02460B46DDF830C0102DAB
:1057D0002C46ACEB0B0CA8BF1024092DCDE90423FB
:1057E000CDF82CC014DD174B03EBC40353E912238F
:1057F000FBF724FA0246484690468946FAF7EAFD46
:1058000002460B4640464946FAF7A8FCCDE904019A
:105810000F2D00F3A5800B9B002B00F00F840B9B3A
:1058200040F38A83162B40F3F4840B9AC5F12503C9
:10583000934280F207850B9B2C1B1C4496E000BF13
:1058400008DE0008C8DE00080025DDF86C8008F1DD
:1058500001031B9398F801402B2C00F082822D2C21
:1058600000F01B824FF0000EA4F13003092B00F270
:105870000F82302C05D11B9B01331B931C78302CDD
:10588000FAD0A4F13103082B8FD81B9AA4F1300170
:10589000531C1B93547808922F2C09DC00F029BC70
:1058A0001C4601331B936478A2F130012F2C05DDD7
:1058B00001EB8102392C04EB4202F1DD089A9B1ABC
:1058C000082B40F3168444F61F630C93BEF1000FBF
:1058D0003FF46DAF0C9B5B420C93002D7FF46AAFDD
:1058E0000B9B034320D1BCF1000F7FF432AF692C36
:1058F00000F01B8400F33983492C00F016844E2CF1
:105900007FF427AFAA491BA804F0A6FC00283FF4A7
:1059100020AF1B9B1B78282B00F07385A54806F051
:1059200011F98346894602E04FF0000BD946079AE9
:105930000AB11B9B1360099B002B3FF412AF09F1C6
:10594000004399465846494621B0BDE8F08F1B9B5D
:105950000A9503EB0B021B9213F80B408346DFE61C
:105960000B9B2C1B1C44002C40F3048314F00F00F1
:105970000AD0DDE90423904901EBC001D1E900011F
:10598000FBF75CF9CDE9040134F00F0340F08682A7
:10599000002308932B46394650460A9A009605F094
:1059A00015FA1390002800F04E830C9BABEB03011B
:1059B0000B9B002BB4BF0A4600220E920022934696
:1059C000904623EAE3731293139C5046616805F0F6
:1059D0007BF90746002800F04081226904F10C01A0
:1059E000023292000C30FBF7B3F8DDE904010C46FB
:1059F00011911EA901911DA902460A902346504605
:105A0000009105F087FD1C90002800F0168101210F
:105A1000504605F081FA8046002800F01E811D9B4B
:105A2000002BC0F20D810E9A129D9E18089A1E9CA2
:105A30009B1A2344614A013B9342C4F1360480F22D
:105A4000AE80D21A1F2A4FF00109A4EB020400F322
:105A50001981002309FA02F90C93089B2544344468
:105A6000A6421D443346A8BF2346AB42A8BF2B46DF
:105A7000002B02DDE41AED1AF61A0E9B002B00F340
:105A8000BC80002C00F3D0800B9B002B00F3DC804B
:105A9000002D00F3ED80002E08DD414632465046D1
:105AA00005F072FB8046002800F0D7803A46504649
:105AB0001C9905F0FFFB8346002800F0CE800026ED
:105AC000C3684146C6600F9305F0D4FBB042C0F2F4
:105AD000678400F0CE834146584605F07DFD0022E4
